0162875760999992019010100004-34810-058530FM-12+002099999V0201401N0026122000199010000199+02301+01541101031ADDAA101999999AZ101061AZ201061GA1021+030001031GE19AGL   +99999+99999GF102991021999030001999999KA1120M+02701KA2120N+02301MA1999999100801MD1310051+9999REMSYN004BUFR
0078875760999992019010100004-34822-058536FM-15+002099999V0201301N002619999999Y009900199+02201+01501999999ADDMA1101001999999REMMET051METAR SAEZ 010000Z 13005KT CAVOK 22/15 Q1010 NOSIG=
0107875760999992019010101004-34822-058536FM-15+002099999V0200901N004612200019N009000199+02201+01601999999ADDGF100991999999999999999999MA1101001999999REMMET054METAR SAEZ 010100Z 09009KT 9000 NSC 22/16 Q1010 NOSIG=
0107875760999992019010102004-34822-058536FM-15+002099999V0201301N002112200019N007000199+02101+01801999999ADDGF100991999999999999999999MA1101101999999REMMET054METAR SAEZ 010200Z 13004KT 7000 NSC 21/18 Q1011 NOSIG=
0131875760999992019010103004-34810-058530FM-12+002099999V0201401N0021122000199008000199+02071+01821101071ADDAY101031AY201031GA1021+030001031GE19AGL   +99999+99999GF102991021999030001999999MA1999999100841MD1010041+9999MW1041REMSYN004BUFR
0107875760999992019010103004-34822-058536FM-15+002099999V0201401N002112200019N008000199+02001+01801999999ADDGF100991999999999999999999MA1101001999999REMMET054METAR SAEZ 010300Z 14004KT 8000 NSC 20/18 Q1010 NOSIG=
0189875760999992019010103254-34822-058536FM-16+002099999V0201301N00211030481CN003000199+02001+01901999999ADDGA1021+000911999GA2041+030481999GE19AGL   +99999+99999GF199999021999000911999999MA1101001999999MW1041MW2101REMMET070SPECI SAEZ 010325Z 13004KT 3000 BR FU FEW003 SCT100 20/19 Q1010 NOSIG=
0235875760999992019010104004-34817-058533FM-12+002099999V0201801N00211000601CN002000199+01991+01851101011ADDAY111021AY201021GA1051+000601071GA2999+999999031GE19AGL   +99999+99999GF105991051999000601999999MA1999999100781MD1810051+9999MW1101REMSYN09287576 41120 51804 10199 20185 30078 40101 58005 71010 85670 333 56660 85702 96004 555 10102=
0166875760999992019010104004-34822-058536FM-15+002099999V0201601N00211000611CN002000199+02001+01801999999ADDGA1071+000611999GE19AGL   +99999+99999GF199999071999000611999999MA1101001999999MW1041MW2101REMMET063METAR SAEZ 010400Z 16004KT 2000 BR FU BKN002 20/18 Q1010 NOSIG=
0166875760999992019010104264-34822-058536FM-16+002099999V0201601N002619999999N003500199+02001+01901999999ADDGA1041+000911999GE19AGL   +99999+99999GF199999041999000911999999MA1101001999999MW1041MW2101REMMET063SPECI SAEZ 010426Z 16005KT 3500 BR FU SCT003 20/19 Q1010 NOSIG=
0199875760999992019010105004-34822-058536FM-15+002099999V0201301N00151030481CN003000199+02001+02001999999ADDGA1041+000911999GA2041+030481999GE19AGL   +99999+99999GF199999041999000911999999MA1101001999999MW1101REMMET086METAR COR SAEZ 010500Z 13003KT 3000 BR SCT003 SCT100 20/20 Q1010 BECMG 5000 BR OVC003=
0225875760999992019010106004-34817-058533FM-12+002099999V0201401N00151000601CN002500199+02021+01911100971ADDAY111021AY201021GA1051+000601071GA2031+030001031GE19AGL   +99999+99999GF105991051999000601999999MA1999999100741MD1710091+9999MW1101REMSYN08287576 31125 51403 10202 20191 30074 40097 57009 71010 84670 333 56470 85702 83360=
0172875760999992019010106004-34822-058536FM-15+002099999V0201301N00151000611CN002500199+02001+02001999999ADDGA1071+000611999GE19AGL   +99999+99999GF199999071999000611999999MA1100901999999MW1101REMMET075METAR SAEZ 010600Z 13003KT 2500 BR BKN002 20/20 Q1009 BECMG 5000 BR OVC003=
0157875760999992019010106234-34822-058536FM-16+002099999V0200901N002619999999N005000199+02001+02001999999ADDGA1041+000611999GE19AGL   +99999+99999GF199999041999000611999999MA1100901999999MW1101REMMET060SPECI SAEZ 010623Z 09005KT 5000 BR SCT002 20/20 Q1009 NOSIG=
0171875760999992019010106454-34822-058536FM-16+002099999V0200701N00361010671CN008000199+02301+01901999999ADDGA1021+000611999GA2021+010671999GE19AGL   +99999+99999GF199999021999000611999999MA1100901999999REMMET064SPECI SAEZ 010645Z 07007KT 8000 FEW002 FEW035 23/19 Q1009 NOSIG=
0148875760999992019010107004-34822-058536FM-15+002099999V0200701N003619999999N009999199+02201+01901999999ADDGA1021+010671999GE19AGL   +99999+99999GF199999021999010671999999MA1100901999999REMMET057METAR SAEZ 010700Z 07007KT 9999 FEW035 22/19 Q1009 NOSIG=
0078875760999992019010108004-34822-058536FM-15+002099999V0200701N004619999999Y009900199+02301+01901999999ADDMA1101001999999REMMET051METAR SAEZ 010800Z 07009KT CAVOK 23/19 Q1010 NOSIG=
0125875760999992019010109004-34810-058530FM-12+002099999V0200701N0046122000199010000199+02301+01941101031ADDAZ101031AZ201031GA1041+030001031GE19AGL   +99999+99999GF104991041999030001999999MA1999999100801MD1310051+9999REMSYN004BUFR
0078875760999992019010109004-34822-058536FM-15+002099999V0200601N005119999999Y009900199+02301+02001999999ADDMA1101001999999REMMET051METAR SAEZ 010900Z 06010KT CAVOK 23/20 Q1010 NOSIG=
0078875760999992019010110004-34822-058536FM-15+002099999V0200601N005719999999Y009900199+02401+02101999999ADDMA1101001999999REMMET051METAR SAEZ 011000Z 06011KT CAVOK 24/21 Q1010 NOSIG=
0078875760999992019010111004-34822-058536FM-15+002099999V0200501N005719999999Y009900199+02501+02201999999ADDMA1101001999999REMMET051METAR SAEZ 011100Z 05011KT CAVOK 25/22 Q1010 NOSIG=
0162875760999992019010112004-34810-058530FM-12+002099999V0200501N0062122000199010000199+02571+02121101061ADDAA101999999AZ101061AZ201061GA1011+004501071GE19AGL   +99999+99999GF102991011999004501999999KA1120M+02571KA2120N+01981MA1999999100821MD1010031+9999REMSYN004BUFR
0151875760999992019010112004-34822-058536FM-15+002099999V0200501V005119999999N999999999+02601+02201999999ADDGA1021+004571999GE19AGL   +99999+99999GF199999021999004571999999MA1101001999999REMMET060METAR SAEZ 011200Z 05010KT 030V090 FEW015 26/22 Q1010 NOSIG=
0078875760999992019010113004-34822-058536FM-15+002099999V0200401N005119999999Y009900199+02701+02201999999ADDMA1101001999999REMMET051METAR SAEZ 011300Z 04010KT CAVOK 27/22 Q1010 NOSIG=
0078875760999992019010114004-34822-058536FM-15+002099999V0200401N005119999999Y009900199+02901+02301999999ADDMA1101001999999REMMET051METAR SAEZ 011400Z 04010KT CAVOK 29/23 Q1010 NOSIG=
0141875760999992019010115004-34810-058530FM-12+002099999V0200701N00511060001C9010000199+02951+02261100951ADDAZ101031AZ201031GA1051+030001031GA2031+060001011GE19AGL   +99999+99999GF107991051999030001999999MA1999999100721MD1710111+9999REMSYN004BUFR
0086875760999992019010115004-34822-058536FM-15+002099999V0200401V005119999999Y009900199+03001+02301999999ADDMA1100901999999REMMET059METAR SAEZ 011500Z 04010KT 010V080 CAVOK 30/23 Q1009 NOSIG=
0078875760999992019010116004-34822-058536FM-15+002099999V0200701N004619999999Y009900199+03101+02501999999ADDMA1100801999999REMMET051METAR SAEZ 011600Z 07009KT CAVOK 31/25 Q1008 NOSIG=
0179875760999992019010117004-34822-058536FM-15+002099999V0200501V00571030481CN009999199+03201+02401999999ADDGA1021+012191999GA2041+030481999GE19AGL   +99999+99999GF199999021999012191999999MA1100801999999REMMET072METAR SAEZ 011700Z 05011KT 020V080 9999 FEW040 SCT100 32/24 Q1008 NOSIG=
0168875760999992019010118004-34810-058530FM-12+001299999V0200501N0062199999999010000199+03151+02341100731ADDAA101999999AZ101061AZ201061GA1011+012601081GA2041+030001031GA3999+999999081GE19AGL   +99999+99999GF105991011999012601999999MA1999999100501MD1710211+9999REMSYN004BUFR
0171875760999992019010118004-34822-058536FM-15+002099999V0200501N00721030481CN009999199+03101+02401999999ADDGA1021+012801999GA2041+030481999GE19AGL   +99999+99999GF199999021999012801999999MA1100701999999REMMET064METAR SAEZ 011800Z 05014KT 9999 FEW042 SCT100 31/24 Q1007 NOSIG=
0212875760999992019010119004-34822-058536FM-15+002099999V0200301N00571030481CN009999199+03201+02501999999ADDGA1021+013721999GA2021+015241091GA3041+030481999GE19AGL   +99999+99999GF199999021999013721999999MA1100601999999REMMET089METAR SAEZ 011900Z 03011KT 9999 FEW045 FEW050CB SCT100 32/25 Q1006 RMK CB OBS TO N NOSIG=
0212875760999992019010120004-34822-058536FM-15+002099999V0200201N00821030481CN009999199+03201+02501999999ADDGA1021+010671999GA2021+015241091GA3041+030481999GE19AGL   +99999+99999GF199999021999010671999999MA1100501999999REMMET089METAR SAEZ 012000Z 02016KT 9999 FEW035 FEW050CB SCT100 32/25 Q1005 NOSIG RMK CB OBS TO N=
0222875760999992019010120524-34822-058536FM-16+002099999V0203301N011310182919N003000199+02901+02401999999ADDGA1041+010671999GA2021+015241091GA3071+018291999GE19AGL   +99999+99999GF199999041999010671999999MA1100601999999MW1951OC101651REMMET085SPECI COR SAEZ 012052Z 33022G32KT 3000 TSRA SCT035 FEW050CB BKN060 29/24 Q1006 NOSIG=
0163875760999992019010121004-34810-058530FM-12+002099999V0203401N0093101800199005000199+02611+02351100641ADDAY191031AY261031GA1031+009001061GA2011+015001091GA3061+018001051GE19AGL   +99999+99999GF107991031999009001999999MA1999999100411MD1510091+9999MW1951REMSYN004BUFR
0229875760999992019010121004-34822-058536FM-15+002099999V0203601N006210182919N005000199+02601+02501999999ADDGA1041+009141999GA2021+015241091GA3071+018291999GE19AGL   +99999+99999GF199999041999009141999999MA1100501999999MW1951OC101491REMMET092METAR SAEZ 012100Z 36012G29KT 5000 -TSRA SCT030 FEW050CB BKN060 26/25 Q1005 BECMG 5000 TSRA=
0230875760999992019010122004-34822-058536FM-15+002099999V0200101N00311030481CN009999199+02701+02601999999ADDGA1021+009141999GA2021+015241091GA3041+030481999GE19AGL   +99999+99999GF199999021999009141999999MA1100401999999OC101131REMMET099METAR SAEZ 012200Z 01006G22KT 9999 FEW030 FEW050CB SCT100 27/26 Q1004 RETSRA NOSIG RMK CB OBS TO W=
0201875760999992019010123004-34822-058536FM-15+002099999V0200301N00571060961CN009999199+02801+02501999999ADDGA1021+015241091GA2041+060961999GE19AGL   +99999+99999GF199999021999015241999999MA1100401999999OC101081REMMET086METAR SAEZ 012300Z 03011G21KT 9999 FEW050CB SCT200 28/25 Q1004 NOSIG RMK CB OBS TO SW=
0168875760999992019010200004-34810-058530FM-12+002099999V0200201N0041122000199010000199+02871+02411100631ADDAA106006031AY191061AY211061GA1031+027001031GE19AGL   +99999+99999GF103991031999027001999999KA1120M+03301KA2120N+02501MA1999999100401MD1510011+9999MW1131REMSYN004BUFR
0096875760999992019010200004-34822-058536FM-15+002099999V0200201N004119999999Y009900199+02801+02401999999ADDMA1100601999999REMMET069METAR SAEZ 020000Z 02008KT CAVOK 28/24 Q1006 NOSIG RMK LGHT OBS TO S=
0078875760999992019010201004-34822-058536FM-15+002099999V0203601N002619999999Y009900199+02801+02501999999ADDMA1100701999999REMMET051METAR SAEZ 020100Z 36005KT CAVOK 28/25 Q1007 NOSIG=
0078875760999992019010202004-34822-058536FM-15+002099999V0200101N004619999999Y009900199+02801+02501999999ADDMA1100601999999REMMET051METAR SAEZ 020200Z 01009KT CAVOK 28/25 Q1006 NOSIG=
0125875760999992019010203004-34810-058530FM-12+002099999V0203601N0036122000199010000199+02751+02461100701ADDAZ101031AZ201031GA1041+030001031GE19AGL   +99999+99999GF104991041999030001999999MA1999999100461MD1210071+9999REMSYN004BUFR
0078875760999992019010203004-34822-058536FM-15+002099999V0200201N003619999999Y009900199+02801+02501999999ADDMA1100701999999REMMET051METAR SAEZ 020300Z 02007KT CAVOK 28/25 Q1007 NOSIG=
0078875760999992019010204004-34822-058536FM-15+002099999V0203401N003119999999Y009900199+02701+02401999999ADDMA1100601999999REMMET051METAR SAEZ 020400Z 34006KT CAVOK 27/24 Q1006 NOSIG=
0107875760999992019010205004-34822-058536FM-15+002099999V0203201N002612200019N008000199+02601+02401999999ADDGF100991999999999999999999MA1100501999999REMMET054METAR SAEZ 020500Z 32005KT 8000 NSC 26/24 Q1005 NOSIG=
0136875760999992019010206004-34810-058530FM-12+002099999V0202901N0021122000199010000199+02571+02351100511ADDAA101999999AZ101061AZ201061GA1031+021001051GE19AGL   +99999+99999GF103991031999021001999999MA1999999100281MD1610191+9999REMSYN004BUFR
0078875760999992019010206004-34822-058536FM-15+002099999V0202901N002619999999Y009900199+02501+02401999999ADDMA1100501999999REMMET051METAR SAEZ 020600Z 29005KT CAVOK 25/24 Q1005 NOSIG=
0078875760999992019010207004-34822-058536FM-15+002099999V0200101N001019999999Y009900199+02501+02401999999ADDMA1100501999999REMMET051METAR SAEZ 020700Z 01002KT CAVOK 25/24 Q1005 NOSIG=
0078875760999992019010208004-34822-058536FM-15+002099999V0200501N001519999999Y009900199+02501+02401999999ADDMA1100501999999REMMET051METAR SAEZ 020800Z 05003KT CAVOK 25/24 Q1005 NOSIG=
0157875760999992019010209004-34810-058530FM-12+000999999V0200701N00151030001C9010000199+02521+02281100521ADDAZ101031AZ201031GA1021+015001081GA2051+030001031GA3999+999999081GE19AGL   +99999+99999GF108991021999015001999999MA1999999100291MD1110011+9999REMSYN004BUFR
0086875760999992019010209004-34822-058536FM-15+002099999V0200401N002119999999Y009900199+02601+02301999999ADDMA1100501999999REMMET059METAR SAEZ 020900Z 04004KT CAVOK 26/23 Q1005 TEMPO 7000 RA=
0086875760999992019010210004-34822-058536FM-15+002099999V0200101N002119999999Y009900199+02601+02401999999ADDMA1100501999999REMMET059METAR SAEZ 021000Z 01004KT CAVOK 26/24 Q1005 TEMPO 7000 RA=
0094875760999992019010211004-34822-058536FM-15+002099999V0200201V003119999999Y009900199+02701+02401999999ADDMA1100501999999REMMET067METAR SAEZ 021100Z 02006KT 330V040 CAVOK 27/24 Q1005 TEMPO 7000 RA=
0194875760999992019010212004-34810-058530FM-12+002099999V0203601N00261005405C9010000199+02771+02381100451ADDAA124006031AZ101061AZ201061GA1051+005401061GA2071+013201061GA3081+030001031GE19AGL   +99999+99999GF108991051999005401999999KA1120M+02871KA2120N+02501MA1999999100221MD1710071+9999REMSYN004BUFR
0202875760999992019010212004-34822-058536FM-15+002099999V0200101N00261005491CN009999199+02701+02401999999ADDGA1071+005491999GA2071+013411999GA3081+030481999GE19AGL   +99999+99999GF199999071999005491999999MA1100501999999REMMET079METAR SAEZ 021200Z 01005KT 9999 BKN018 BKN044 OVC100 27/24 Q1005 TEMPO 7000 RA=
0208875760999992019010213004-34822-058536FM-15+002099999V0203301N00311004571CN003000199+02701+02601999999ADDGA1071+004571999GA2081+018291999GE19AGL   +99999+99999GF199999071999004571999999MA1100401999999MW1101MW2631REMMET089METAR SAEZ 021300Z 33006KT 3000 RA BR BKN015 OVC060 27/26 Q1004 TEMPO 7000 RA FEW045 TCU=
0232875760999992019010214004-34822-058536FM-15+002099999V0203401N00261003351CN009000199+02901+02601999999ADDGA1071+003351999GA2071+006101999GA3081+018291999GE19AGL   +99999+99999GF199999071999003351999999MA1100301999999MW1101MW2511REMMET097METAR SAEZ 021400Z 34005KT 9000 -DZ BR BKN011 BKN020 OVC060 29/26 Q1003 TEMPO 7000 RA FEW045 TCU=
0147875760999992019010215004-34810-058530FM-12+002099999V0202901N00311013505C9010000199+02911+02651100281ADDAY161031AY251031GA1071+013501071GA2081+030001031GE19AGL   +99999+99999GF108991071999013501999999MA1999999100051MD1710171+9999MW1201REMSYN004BUFR
0179875760999992019010215004-34822-058536FM-15+002099999V0202901N00311013721CN009999199+02901+02701999999ADDGA1071+013721999GA2081+018291999GE19AGL   +99999+99999GF199999071999013721999999MA1100301999999REMMET072METAR SAEZ 021500Z 29006KT 9999 BKN045 OVC060 29/27 Q1003 TSRA FEW045CB=
0221875760999992019010215264-34822-058536FM-16+002099999V0202801N002110182919N005000199+02801+02701999999ADDGA1041+007621999GA2021+013721091GA3071+018291999GE19AGL   +99999+99999GF199999041999007621999999MA1100301999999MW1951REMMET092SPECI SAEZ 021526Z 28004KT 5000 -TSRA SCT025 FEW045CB BKN060 28/27 Q1003 6000 TSRA FEW045CB=
0231875760999992019010216004-34822-058536FM-15+002099999V0202901N00311005491CN002000199+02701+02701999999ADDGA1071+005491999GA2021+013721091GA3081+010671999GE19AGL   +99999+99999GF199999071999005491999999MA1100201999999MW1951REMMET102METAR COR SAEZ 021600Z 29006KT 2000 TSRA BKN018 FEW045CB OVC035 27/27 Q1002 3000 TSRA BKN015 FEW045CB=
0238875760999992019010216244-34822-058536FM-16+002099999V0202301N00821001831CN001000199+02401+02301999999ADDGA1071+001831999GA2021+013721091GA3081+003051999GE19AGL   +99999+99999GF199999071999001831999999MA1100501999999MW1951OC101441REMMET101SPECI SAEZ 021624Z 23016G28KT 1000 TSRA BKN006 FEW045CB OVC010 24/23 Q1005 3000 TSRA BKN015 FEW045CB=
0235875760999992019010216404-34822-058536FM-16+002099999V0201801V00311001221CN003000199+02301+02301999999ADDGA1071+001221999GA2021+013721091GA3081+008531999GE19AGL   +99999+99999GF199999071999001221999999MA1100501999999MW1951REMMET106SPECI SAEZ 021640Z 18006KT 110V220 3000 TSRA BKN004 FEW045CB OVC028 23/23 Q1005 3000 TSRA BKN015 FEW045CB=
0260875760999992019010217004-34822-058536FM-15+002099999V0202101V002610106719N008000199+02401+02401999999ADDGA1041+000911999GA2021+013721091GA3071+010671999GA4081+018291999GE19AGL   +99999+99999GF199999041999000911999999MA1100301999999MW1951REMMET115METAR SAEZ 021700Z 21005KT 170V240 8000 -TSRA SCT003 FEW045CB BKN035 OVC060 24/24 Q1003 1000 +TSRA BKN015 FEW045CB=
0174875760999992019010218004-34810-058530FM-12+002099999V0200901N00671002105C9010000199+02411+02281100011ADDAA106017031AY191061AY261061GA1051+002101071GA2071+030001031GA3081+060001021GE19AGL   +99999+99999GF108991051999002101999999MA1999999099781MD1610271+9999MW1291REMSYN004BUFR
0216875760999992019010218004-34822-058536FM-15+002099999V0201001N00671002131CN009999199+02401+02301999999ADDGA1071+002131999GA2071+030481999GA3081+060961999GE19AGL   +99999+99999GF199999071999002131999999REMMET089METAR SAEZ 021800Z 10013KT 9999 BKN007 BKN100 OVC200 24/23 Q1008 RETSRA 7000 RADZ SCT040=EQDQ011008  3APOA  
0198875760999992019010219004-34822-058536FM-15+002099999V0201301N00261003051CN009999199+02401+02301999999ADDGA1071+003051999GA2071+030481999GA3071+060961999GE19AGL   +99999+99999GF199999071999003051999999MA1100201999999REMMET075METAR SAEZ 021900Z 13005KT 9999 BKN010 BKN100 BKN200 24/23 Q1002 7000 RADZ=
0078875760999992019010220004-34822-058536FM-15+002099999V0209999V001019999999Y009900199+02501+02301999999ADDMA1100201999999REMMET051METAR SAEZ 022000Z VRB02KT CAVOK 25/23 Q1002 NOSIG=
0157875760999992019010221004-34810-058530FM-12+002099999V0201101N0026103000599010000199+02511+02291100271ADDAZ101031AZ201031GA1041+004501071GA2071+030001031GA3081+060001021GE19AGL   +99999+99999GF108991041999004501999999MA1999999100041MD1310251+9999REMSYN004BUFR
0078875760999992019010221004-34822-058536FM-15+002099999V0201201N002119999999Y009900199+02501+02301999999ADDMA1100301999999REMMET051METAR SAEZ 022100Z 12004KT CAVOK 25/23 Q1003 NOSIG=
0078875760999992019010222004-34822-058536FM-15+002099999V0209999V001519999999Y009900199+02401+02301999999ADDMA1100301999999REMMET051METAR SAEZ 022200Z VRB03KT CAVOK 24/23 Q1003 NOSIG=
0078875760999992019010223004-34822-058536FM-15+002099999V0202101N002119999999Y009900199+02401+02101999999ADDMA1100401999999REMMET051METAR SAEZ 022300Z 21004KT CAVOK 24/21 Q1004 NOSIG=
0178875760999992019010300004-34810-058530FM-12+002099999V0202301N00211021005C9010000199+02401+02181100511ADDAA101999999AZ101061AZ201061GA1051+021001051GA2061+060001021GE19AGL   +99999+99999GF106991051999021001999999KA1120M+03011KA2120N+02261MA1999999100281MD1210241+9999REMSYN004BUFR
0078875760999992019010300004-34822-058536FM-15+002099999V0202201N002619999999Y009900199+02401+02201999999ADDMA1100501999999REMMET051METAR SAEZ 030000Z 22005KT CAVOK 24/22 Q1005 NOSIG=
0078875760999992019010301004-34822-058536FM-15+002099999V0202401N002119999999Y009900199+02301+02301999999ADDMA1100601999999REMMET051METAR SAEZ 030100Z 24004KT CAVOK 23/23 Q1006 NOSIG=
0171875760999992019010302004-34822-058536FM-15+002099999V0202101N00311005491CN009999199+02401+02201999999ADDGA1071+005491999GA2081+030481999GE19AGL   +99999+99999GF199999071999005491999999MA1100701999999REMMET064METAR SAEZ 030200Z 21006KT 9999 BKN018 OVC100 24/22 Q1007 NOSIG=
0157875760999992019010303004-34810-058530FM-12+002099999V0202001N00461008701C9010000199+02301+01991100781ADDAZ101031AZ201031GA1031+005101071GA2031+008701061GA3081+030001031GE19AGL   +99999+99999GF108991031999005101999999MA1999999100541MD1210271+9999REMSYN004BUFR
0213875760999992019010303004-34822-058536FM-15+002099999V0201801V00511008841CN009999199+02301+01801999999ADDGA1041+005181999GA2041+008841999GA3081+030481999GE19AGL   +99999+99999GF199999041999005181999999MA1100801999999OC101131REMMET082METAR SAEZ 030300Z 18010G22KT 150V220 9999 SCT017 SCT029 OVC100 23/18 Q1008 NOSIG=
0205875760999992019010303264-34822-058536FM-16+002099999V0201801N00771009451CN009999199+02301+01801999999ADDGA1021+005791999GA2021+009451999GA3081+030481999GE19AGL   +99999+99999GF199999021999005791999999MA1100801999999OC101341REMMET074SPECI SAEZ 030326Z 18015G26KT 9999 FEW019 FEW031 OVC100 23/18 Q1008 NOSIG=
0190875760999992019010304004-34822-058536FM-15+002099999V0201801V007210304819N009999199+02101+01601999999ADDGA1021+005791999GA2081+030481999GE19AGL   +99999+99999GF199999021999005791999999MA1100801999999OC101291REMMET075METAR SAEZ 030400Z 18014G25KT 150V230 9999 FEW019 OVC100 21/16 Q1008 NOSIG=
0190875760999992019010305004-34822-058536FM-15+002099999V0201801V005110304819N009999199+02001+01501999999ADDGA1021+013721999GA2071+030481999GE19AGL   +99999+99999GF199999021999013721999999MA1100901999999OC101081REMMET075METAR SAEZ 030500Z 18010G21KT 150V220 9999 FEW045 BKN100 20/15 Q1009 NOSIG=
0141875760999992019010306004-34810-058530FM-12+002099999V0201801N00461030001C9010000199+01901+01091100991ADDAZ101061AZ201061GA1021+014701061GA2061+030001031GE19AGL   +99999+99999GF108991021999014701999999MA1999999100761MD1210211+9999REMSYN004BUFR
0190875760999992019010306004-34822-058536FM-15+002099999V0201801V004610304819N009999199+01901+01101999999ADDGA1021+014941999GA2071+030481999GE19AGL   +99999+99999GF199999021999014941999999MA1101001999999OC100981REMMET075METAR SAEZ 030600Z 18009G19KT 150V220 9999 FEW049 BKN100 19/11 Q1010 NOSIG=
0202875760999992019010307004-34822-058536FM-15+002099999V0201801V003110304819N009999199+01701+01301999999ADDGA1021+013721999GA2071+030481999GA3071+060961999GE19AGL   +99999+99999GF199999021999013721999999MA1101001999999REMMET079METAR SAEZ 030700Z 18006KT 140V250 9999 FEW045 BKN100 BKN200 17/13 Q1010 NOSIG=
0194875760999992019010308004-34822-058536FM-15+002099999V0201801N00261030481CN009999199+01601+01101999999ADDGA1021+013111999GA2041+030481999GA3071+060961999GE19AGL   +99999+99999GF199999021999013111999999MA1101001999999REMMET071METAR SAEZ 030800Z 18005KT 9999 FEW043 SCT100 BKN200 16/11 Q1010 NOSIG=
0141875760999992019010309004-34810-058530FM-12+002099999V0201801N00311060001C9010000199+01561+01101101201ADDAZ101031AZ201031GA1011+013501061GA2071+060001021GE19AGL   +99999+99999GF107991011999013501999999MA1999999100961MD1210201+9999REMSYN004BUFR
0171875760999992019010309004-34822-058536FM-15+002099999V0201801N002610609619N009999199+01501+01201999999ADDGA1021+013721999GA2071+060961999GE19AGL   +99999+99999GF199999021999013721999999MA1101201999999REMMET064METAR SAEZ 030900Z 18005KT 9999 FEW045 BKN200 15/12 Q1012 NOSIG=
0078875760999992019010310004-34822-058536FM-15+002099999V0201801N002619999999Y009900199+01601+01201999999ADDMA1101201999999REMMET051METAR SAEZ 031000Z 18005KT CAVOK 16/12 Q1012 NOSIG=
0078875760999992019010311004-34822-058536FM-15+002099999V0201801N003119999999Y009900199+01601+01101999999ADDMA1101201999999REMMET051METAR SAEZ 031100Z 18006KT CAVOK 16/11 Q1012 NOSIG=
0178875760999992019010312004-34810-058530FM-12+002099999V0201801N00311060001C9010000199+01671+01071101331ADDAA124017031AZ101061AZ201061GA1011+030001031GA2071+060001021GE19AGL   +99999+99999GF107991011999030001999999KA1120M+02401KA2120N+01521MA1999999101091MD1210131+9999REMSYN004BUFR
0086875760999992019010312004-34822-058536FM-15+002099999V0201701V003119999999Y009900199+01701+01001999999ADDMA1101301999999REMMET059METAR SAEZ 031200Z 17006KT 150V210 CAVOK 17/10 Q1013 NOSIG=
0086875760999992019010313004-34822-058536FM-15+002099999V0201501V003619999999Y009900199+01901+00901999999ADDMA1101301999999REMMET059METAR SAEZ 031300Z 15007KT 120V200 CAVOK 19/09 Q1013 NOSIG=
0086875760999992019010314004-34822-058536FM-15+002099999V0201501V003119999999Y009900199+02101+00801999999ADDMA1101301999999REMMET059METAR SAEZ 031400Z 15006KT 130V220 CAVOK 21/08 Q1013 NOSIG=
0125875760999992019010315004-34810-058530FM-12+002099999V0201801N0031122000199010000199+02201+00771101341ADDAZ101031AZ201031GA1031+060001021GE19AGL   +99999+99999GF103991031999060001999999MA1999999101101MD1110011+9999REMSYN004BUFR
0086875760999992019010315004-34822-058536FM-15+002099999V0201801V003119999999Y009900199+02201+00601999999ADDMA1101301999999REMMET059METAR SAEZ 031500Z 18006KT 130V220 CAVOK 22/06 Q1013 NOSIG=
0086875760999992019010316004-34822-058536FM-15+002099999V0202201V002619999999Y009900199+02301+00701999999ADDMA1101301999999REMMET059METAR SAEZ 031600Z 22005KT 220V290 CAVOK 23/07 Q1013 NOSIG=
0078875760999992019010317004-34822-058536FM-15+002099999V0202501N002619999999Y009900199+02301+00601999999ADDMA1101301999999REMMET051METAR SAEZ 031700Z 25005KT CAVOK 23/06 Q1013 NOSIG=
0136875760999992019010318004-34810-058530FM-12+002099999V0202001N0026122000199010000199+02371+00631101261ADDAA101999999AZ101061AZ201061GA1031+060001001GE19AGL   +99999+99999GF103991031999060001999999MA1999999101021MD1710081+9999REMSYN004BUFR
0086875760999992019010318004-34822-058536FM-15+002099999V0201901V002619999999Y009900199+02301+00501999999ADDMA1101201999999REMMET059METAR SAEZ 031800Z 19005KT 130V200 CAVOK 23/05 Q1012 NOSIG=
0086875760999992019010319004-34822-058536FM-15+002099999V0201801V003119999999Y009900199+02401+00801999999ADDMA1101201999999REMMET059METAR SAEZ 031900Z 18006KT 150V220 CAVOK 24/08 Q1012 NOSIG=
0086875760999992019010320004-34822-058536FM-15+002099999V0201901V002619999999Y009900199+02401+00801999999ADDMA1101101999999REMMET059METAR SAEZ 032000Z 19005KT 150V240 CAVOK 24/08 Q1011 NOSIG=
0125875760999992019010321004-34810-058530FM-12+002099999V0202301N0015122000199010000199+02401+00671101111ADDAZ101031AZ201031GA1021+060001001GE19AGL   +99999+99999GF102991021999060001999999MA1999999100861MD1710161+9999REMSYN004BUFR
0078875760999992019010321004-34822-058536FM-15+002099999V0202301N002119999999Y009900199+02401+00701999999ADDMA1101101999999REMMET051METAR SAEZ 032100Z 23004KT CAVOK 24/07 Q1011 NOSIG=
0078875760999992019010322004-34822-058536FM-15+002099999V0202201N001019999999Y009900199+02301+00901999999ADDMA1101101999999REMMET051METAR SAEZ 032200Z 22002KT CAVOK 23/09 Q1011 NOSIG=
0078875760999992019010323004-34822-058536FM-15+002099999V0201701N001019999999Y009900199+02101+00801999999ADDMA1101101999999REMMET051METAR SAEZ 032300Z 17002KT CAVOK 21/08 Q1011 NOSIG=
0162875760999992019010400004-34810-058530FM-12+002099999V0201101N0015122000199010000199+02051+00791101191ADDAA101999999AZ101061AZ201061GA1031+060001001GE19AGL   +99999+99999GF103991031999060001999999KA1120M+02461KA2120N+01661MA1999999100941MD1310081+9999REMSYN004BUFR
0078875760999992019010400004-34822-058536FM-15+002099999V0201101N001519999999Y009900199+01901+00901999999ADDMA1101201999999REMMET051METAR SAEZ 040000Z 11003KT CAVOK 19/09 Q1012 NOSIG=
0078875760999992019010401004-34822-058536FM-15+002099999V0200501N002619999999Y009900199+02001+01101999999ADDMA1101201999999REMMET051METAR SAEZ 040100Z 05005KT CAVOK 20/11 Q1012 NOSIG=
0078875760999992019010402004-34822-058536FM-15+002099999V0200501N004119999999Y009900199+02001+01101999999ADDMA1101301999999REMMET051METAR SAEZ 040200Z 05008KT CAVOK 20/11 Q1013 NOSIG=
0087875760999992019010403004-34810-058530FM-12+002099999V0200501N0026122000199010000199+02021+01101101291ADDAZ101031AZ201031GF100991999999999999999999MA1999999101061MD1110121+9999REMSYN004BUFR
0078875760999992019010403004-34822-058536FM-15+002099999V0200401N002619999999Y009900199+02001+01201999999ADDMA1101301999999REMMET051METAR SAEZ 040300Z 04005KT CAVOK 20/12 Q1013 NOSIG=
0078875760999992019010404004-34822-058536FM-15+002099999V0200301N002619999999Y009900199+01901+01201999999ADDMA1101201999999REMMET051METAR SAEZ 040400Z 03005KT CAVOK 19/12 Q1012 NOSIG=
0078875760999992019010405004-34822-058536FM-15+002099999V0200101N002619999999Y009900199+01801+01201999999ADDMA1101201999999REMMET051METAR SAEZ 040500Z 01005KT CAVOK 18/12 Q1012 NOSIG=
0098875760999992019010406004-34810-058530FM-12+002099999V0203601N0026122000199010000199+01851+01261101201ADDAA101999999AZ101061AZ201061GF100991999999999999999999MA1999999100971MD1710091+9999REMSYN004BUFR
0078875760999992019010406004-34822-058536FM-15+002099999V0203601N002619999999Y009900199+01701+01101999999ADDMA1101201999999REMMET051METAR SAEZ 040600Z 36005KT CAVOK 17/11 Q1012 NOSIG=
0078875760999992019010407004-34822-058536FM-15+002099999V0203601N002119999999Y009900199+01701+01101999999ADDMA1101201999999REMMET051METAR SAEZ 040700Z 36004KT CAVOK 17/11 Q1012 NOSIG=
0078875760999992019010408004-34822-058536FM-15+002099999V0203601N002619999999Y009900199+01701+01001999999ADDMA1101301999999REMMET051METAR SAEZ 040800Z 36005KT CAVOK 17/10 Q1013 NOSIG=
0087875760999992019010409004-34810-058530FM-12+002099999V0203601N0031122000199010000199+01801+00971101361ADDAZ101031AZ201031GF100991999999999999999999MA1999999101131MD1210161+9999REMSYN004BUFR
0078875760999992019010409004-34822-058536FM-15+002099999V0203601N003119999999Y009900199+01601+00901999999ADDMA1101301999999REMMET051METAR SAEZ 040900Z 36006KT CAVOK 16/09 Q1013 NOSIG=
0078875760999992019010410004-34822-058536FM-15+002099999V0203601N002619999999Y009900199+01701+01101999999ADDMA1101401999999REMMET051METAR SAEZ 041000Z 36005KT CAVOK 17/11 Q1014 NOSIG=
0078875760999992019010411004-34822-058536FM-15+002099999V0203501N003119999999Y009900199+02001+01301999999ADDMA1101501999999REMMET051METAR SAEZ 041100Z 35006KT CAVOK 20/13 Q1015 NOSIG=
0162875760999992019010412004-34810-058530FM-12+002099999V0203201N0041122000199010000199+02161+01131101511ADDAA101999999AZ101061AZ201061GA1011+060001001GE19AGL   +99999+99999GF101991011999060001999999KA1120M+02161KA2120N+01711MA1999999101281MD1210151+9999REMSYN004BUFR
0078875760999992019010412004-34822-058536FM-15+002099999V0203201N004119999999Y009900199+02201+01201999999ADDMA1101501999999REMMET051METAR SAEZ 041200Z 32008KT CAVOK 22/12 Q1015 NOSIG=
0078875760999992019010413004-34822-058536FM-15+002099999V0203001N005119999999Y009900199+02401+01201999999ADDMA1101401999999REMMET051METAR SAEZ 041300Z 30010KT CAVOK 24/12 Q1014 NOSIG=
0078875760999992019010414004-34822-058536FM-15+002099999V0202901N004119999999Y009900199+02501+01301999999ADDMA1101501999999REMMET051METAR SAEZ 041400Z 29008KT CAVOK 25/13 Q1015 NOSIG=
0125875760999992019010415004-34810-058530FM-12+002099999V0202901N0026122000199010000199+02571+01421101501ADDAZ101031AZ201031GA1011+060001001GE19AGL   +99999+99999GF101991011999060001999999MA1999999101281MD1010001+9999REMSYN004BUFR
0086875760999992019010415004-34822-058536FM-15+002099999V0202901V002619999999Y009900199+02501+01301999999ADDMA1101501999999REMMET059METAR SAEZ 041500Z 29005KT 230V350 CAVOK 25/13 Q1015 NOSIG=
0086875760999992019010416004-34822-058536FM-15+002099999V0203101V003119999999Y009900199+02601+01401999999ADDMA1101401999999REMMET059METAR SAEZ 041600Z 31006KT 280V350 CAVOK 26/14 Q1014 NOSIG=
0078875760999992019010417004-34822-058536FM-15+002099999V0203301N003119999999Y009900199+02701+01401999999ADDMA1101401999999REMMET051METAR SAEZ 041700Z 33006KT CAVOK 27/14 Q1014 NOSIG=
0136875760999992019010418004-34810-058530FM-12+002099999V0203201N0026122000199010000199+02771+01181101331ADDAA101999999AZ101061AZ201061GA1011+015001081GE19AGL   +99999+99999GF101991011999015001999999MA1999999101101MD1710171+9999REMSYN004BUFR
0078875760999992019010418004-34822-058536FM-15+002099999V0203401N002619999999Y009900199+02801+01301999999ADDMA1101301999999REMMET051METAR SAEZ 041800Z 34005KT CAVOK 28/13 Q1013 NOSIG=
0078875760999992019010419004-34822-058536FM-15+002099999V0202301N002119999999Y009900199+02801+01201999999ADDMA1101201999999REMMET051METAR SAEZ 041900Z 23004KT CAVOK 28/12 Q1012 NOSIG=
0078875760999992019010420004-34822-058536FM-15+002099999V0209999V001519999999Y009900199+02801+01401999999ADDMA1101201999999REMMET051METAR SAEZ 042000Z VRB03KT CAVOK 28/14 Q1012 NOSIG=
0125875760999992019010421004-34810-058530FM-12+002099999V0203601N0010122000199010000199+02871+01301101151ADDAZ101031AZ201031GA1011+015001081GE19AGL   +99999+99999GF101991011999015001999999MA1999999100921MD1710191+9999REMSYN004BUFR
0078875760999992019010421004-34822-058536FM-15+002099999V0209999V001519999999Y009900199+02901+01301999999ADDMA1101101999999REMMET051METAR SAEZ 042100Z VRB03KT CAVOK 29/13 Q1011 NOSIG=
0078875760999992019010422004-34822-058536FM-15+002099999V0209999V001019999999Y009900199+02801+01401999999ADDMA1101101999999REMMET051METAR SAEZ 042200Z VRB02KT CAVOK 28/14 Q1011 NOSIG=
0078875760999992019010423004-34822-058536FM-15+002099999V0200101N002619999999Y009900199+02601+01401999999ADDMA1101201999999REMMET051METAR SAEZ 042300Z 01005KT CAVOK 26/14 Q1012 NOSIG=
0162875760999992019010500004-34810-058530FM-12+002099999V0200201N0031122000199010000199+02651+01101101271ADDAA101999999AZ101061AZ201061GA1011+030001031GE19AGL   +99999+99999GF101991011999030001999999KA1120M+02871KA2120N+02151MA1999999101041MD1210121+9999REMSYN004BUFR
0078875760999992019010500004-34822-058536FM-15+002099999V0200401N003119999999Y009900199+02601+01101999999ADDMA1101301999999REMMET051METAR SAEZ 050000Z 04006KT CAVOK 26/11 Q1013 NOSIG=
0078875760999992019010501004-34822-058536FM-15+002099999V0200501N002119999999Y009900199+02501+01101999999ADDMA1101301999999REMMET051METAR SAEZ 050100Z 05004KT CAVOK 25/11 Q1013 NOSIG=
0107875760999992019010502004-34822-058536FM-15+002099999V0200801N001012200019N009000199+01901+01301999999ADDGF100991999999999999999999MA1101301999999REMMET054METAR SAEZ 050200Z 08002KT 9000 NSC 19/13 Q1013 NOSIG=
0093875760999992019010503004-34810-058530FM-12+002099999V0200501N0010122000199009000199+02301+01411101381ADDAY101031AY201031GF100991999999999999999999MA1999999101141MD1210111+9999MW1041REMSYN004BUFR
0107875760999992019010503004-34822-058536FM-15+002099999V0209999V001012200019N009000199+01901+01401999999ADDGF100991999999999999999999MA1101401999999REMMET054METAR SAEZ 050300Z VRB02KT 9000 NSC 19/14 Q1014 NOSIG=
0107875760999992019010504004-34822-058536FM-15+002099999V0200301N002112200019N009000199+02101+01501999999ADDGF100991999999999999999999MA1101301999999REMMET054METAR SAEZ 050400Z 03004KT 9000 NSC 21/15 Q1013 NOSIG=
0078875760999992019010505004-34822-058536FM-15+002099999V0200301N002119999999Y009900199+02101+01601999999ADDMA1101301999999REMMET051METAR SAEZ 050500Z 03004KT CAVOK 21/16 Q1013 NOSIG=
0098875760999992019010506004-34810-058530FM-12+002099999V0203601N0010122000199010000199+02351+01621101311ADDAA101999999AZ101061AZ201061GF100991999999999999999999MA1999999101081MD1710071+9999REMSYN004BUFR
0078875760999992019010506004-34822-058536FM-15+002099999V0203601N001019999999Y009900199+01901+01601999999ADDMA1101301999999REMMET051METAR SAEZ 050600Z 36002KT CAVOK 19/16 Q1013 NOSIG=
0078875760999992019010507004-34822-058536FM-15+002099999V0202001N000519999999Y009900199+01601+01501999999ADDMA1101301999999REMMET051METAR SAEZ 050700Z 20001KT CAVOK 16/15 Q1013 NOSIG=
0078875760999992019010508004-34822-058536FM-15+002099999V0203301N001019999999Y009900199+01701+01501999999ADDMA1101301999999REMMET051METAR SAEZ 050800Z 33002KT CAVOK 17/15 Q1013 NOSIG=
0087875760999992019010509004-34810-058530FM-12+002099999V0200201N0015122000199010000199+02121+01481101311ADDAZ101031AZ201031GF100991999999999999999999MA1999999101081MD1410001+9999REMSYN004BUFR
0078875760999992019010509004-34822-058536FM-15+002099999V0200101N001519999999Y009900199+01701+01501999999ADDMA1101301999999REMMET051METAR SAEZ 050900Z 01003KT CAVOK 17/15 Q1013 NOSIG=
0078875760999992019010510004-34822-058536FM-15+002099999V0200101N002619999999Y009900199+02101+01601999999ADDMA1101301999999REMMET051METAR SAEZ 051000Z 01005KT CAVOK 21/16 Q1013 NOSIG=
0078875760999992019010511004-34822-058536FM-15+002099999V0200101N003119999999Y009900199+02401+01601999999ADDMA1101401999999REMMET051METAR SAEZ 051100Z 01006KT CAVOK 24/16 Q1014 NOSIG=
0124875760999992019010512004-34810-058530FM-12+002099999V0200201N0046122000199010000199+02561+01201101401ADDAA101999999AZ101061AZ201061GF100991999999999999999999KA1120M+02651KA2120N+01751MA1999999101171MD1210091+9999REMSYN004BUFR
0078875760999992019010512004-34822-058536FM-15+002099999V0200101N005119999999Y009900199+02501+01301999999ADDMA1101401999999REMMET051METAR SAEZ 051200Z 01010KT CAVOK 25/13 Q1014 NOSIG=
0086875760999992019010513004-34822-058536FM-15+002099999V0203601V005119999999Y009900199+02601+01201999999ADDMA1101301999999REMMET059METAR SAEZ 051300Z 36010KT 320V040 CAVOK 26/12 Q1013 NOSIG=
0086875760999992019010514004-34822-058536FM-15+002099999V0200201V005119999999Y009900199+02701+01301999999ADDMA1101301999999REMMET059METAR SAEZ 051400Z 02010KT 350V050 CAVOK 27/13 Q1013 NOSIG=
0087875760999992019010515004-34810-058530FM-12+002099999V0200501N0057122000199010000199+02851+00941101321ADDAZ101031AZ201031GF100991999999999999999999MA1999999101091MD1710081+9999REMSYN004BUFR
0086875760999992019010515004-34822-058536FM-15+002099999V0200501V006219999999Y009900199+02801+01001999999ADDMA1101301999999REMMET059METAR SAEZ 051500Z 05012KT 340V050 CAVOK 28/10 Q1013 NOSIG=
0078875760999992019010516004-34822-058536FM-15+002099999V0200401N005719999999Y009900199+02801+01201999999ADDMA1101201999999REMMET051METAR SAEZ 051600Z 04011KT CAVOK 28/12 Q1012 NOSIG=
0090875760999992019010517004-34822-058536FM-15+002099999V0200501V006219999999Y009900199+02801+01001999999ADDMA1101101999999REMMET063METAR COR SAEZ 051700Z 05012KT 340V050 CAVOK 28/10 Q1011 NOSIG=
0136875760999992019010518004-34810-058530FM-12+002099999V0200501N0057122000199010000199+03001+00881101101ADDAA101999999AZ101061AZ201061GA1011+030001031GE19AGL   +99999+99999GF101991011999030001999999MA1999999100861MD1710231+9999REMSYN004BUFR
0086875760999992019010518004-34822-058536FM-15+002099999V0200301V005719999999Y009900199+03001+01001999999ADDMA1101101999999REMMET059METAR SAEZ 051800Z 03011KT 340V050 CAVOK 30/10 Q1011 NOSIG=
0078875760999992019010519004-34822-058536FM-15+002099999V0200301N006219999999Y009900199+03001+01001999999ADDMA1101001999999REMMET051METAR SAEZ 051900Z 03012KT CAVOK 30/10 Q1010 NOSIG=
0078875760999992019010520004-34822-058536FM-15+002099999V0200201N005719999999Y009900199+03001+01101999999ADDMA1100801999999REMMET051METAR SAEZ 052000Z 02011KT CAVOK 30/11 Q1008 NOSIG=
0125875760999992019010521004-34810-058530FM-12+002099999V0200701N0057122000199010000199+03021+01171100791ADDAZ101031AZ201031GA1011+030001031GE19AGL   +99999+99999GF101991011999030001999999MA1999999100561MD1710311+9999REMSYN004BUFR
0078875760999992019010521004-34822-058536FM-15+002099999V0200501N005119999999Y009900199+02901+01301999999ADDMA1100801999999REMMET051METAR SAEZ 052100Z 05010KT CAVOK 29/13 Q1008 NOSIG=
0078875760999992019010522004-34822-058536FM-15+002099999V0200501N004619999999Y009900199+02901+01401999999ADDMA1100701999999REMMET051METAR SAEZ 052200Z 05009KT CAVOK 29/14 Q1007 NOSIG=
0078875760999992019010523004-34822-058536FM-15+002099999V0200801N004119999999Y009900199+02701+01401999999ADDMA1100701999999REMMET051METAR SAEZ 052300Z 08008KT CAVOK 27/14 Q1007 NOSIG=
0197875760999992019010600004-34810-058530FM-12+002099999V0200901N00311999999C9010000199+02571+01581100781ADDAA101999999AZ101061AZ201061GA1031+030001031GA2031+060001021GE19AGL   +99999+99999GF103991031999030001999999KA1120M+03051KA2120N+02541MA1999999100541MD1610011+9999REMSYN004BUFREQDQ01 060003SCOCIG
0078875760999992019010600004-34822-058536FM-15+002099999V0201001N002619999999Y009900199+02401+01501999999ADDMA1100801999999REMMET051METAR SAEZ 060000Z 10005KT CAVOK 24/15 Q1008 NOSIG=
0078875760999992019010601004-34822-058536FM-15+002099999V0209999V001519999999Y009900199+02201+01701999999ADDMA1100801999999REMMET051METAR SAEZ 060100Z VRB03KT CAVOK 22/17 Q1008 NOSIG=
0078875760999992019010602004-34822-058536FM-15+002099999V0209999V001019999999Y009900199+02001+01701999999ADDMA1100801999999REMMET051METAR SAEZ 060200Z VRB02KT CAVOK 20/17 Q1008 NOSIG=
0125875760999992019010603004-34810-058530FM-12+002099999V0203601N0031122000199010000199+02511+01911100891ADDAZ101031AZ201031GA1041+030001031GE19AGL   +99999+99999GF104991041999030001999999MA1999999100661MD1210121+9999REMSYN004BUFR
0086875760999992019010603004-34822-058536FM-15+002099999V0200101V002619999999Y009900199+02501+01901999999ADDMA1100901999999REMMET059METAR SAEZ 060300Z 01005KT 340V060 CAVOK 25/19 Q1009 NOSIG=
0078875760999992019010604004-34822-058536FM-15+002099999V0200301N003119999999Y009900199+02601+01801999999ADDMA1100901999999REMMET051METAR SAEZ 060400Z 03006KT CAVOK 26/18 Q1009 NOSIG=
0098875760999992019010605004-34822-058536FM-15+002099999V0200101N002619999999Y009900199+02501+01801999999ADDMA1100801999999REMMET071METAR SAEZ 060500Z 01005KT CAVOK 25/18 Q1008 RMK LGHT OBS TO WSW NOSIG=
0158875760999992019010606004-34810-058530FM-12+002099999V0202701N00361013501C9010000199+02411+01861100921ADDAA101999999AY191061AY211061GA1081+013501091GA2999+999999091GE19AGL   +99999+99999GF108991081999013501999999MA1999999100691MD1310031+9999MW1171REMSYN004BUFR
0231875760999992019010606004-34822-058536FM-15+002099999V0202701N00261014021CN009999199+02401+01801999999ADDGA1081+014021999GA2021+013721091GA3081+018291999GE19AGL   +99999+99999GF199999081999014021999999MA1100901999999MW1171REMMET102METAR SAEZ 060600Z 27005KT 9999 TS OVC046 FEW045CB OVC060 24/18 Q1009 TEMPO 3000 TSRA BKN030 FEW040CB=
0257875760999992019010606144-34822-058536FM-16+002099999V0202801N00261010671CN007000199+02301+01901999999ADDGA1021+005491999GA2041+010671999GA3021+013721091GA4081+018291999GE19AGL   +99999+99999GF199999021999005491999999MA1100901999999MW1951REMMET112SPECI SAEZ 060614Z 28005KT 7000 -TSRA FEW018 SCT035 FEW045CB OVC060 23/19 Q1009 TEMPO 3000 TSRA BKN030 FEW040CB=
0235875760999992019010606244-34822-058536FM-16+002099999V0203001N003110106719N007000199+02201+01901999999ADDGA1021+000911999GA2071+010671999GA3081+018291999GE19AGL   +99999+99999GF199999021999000911999999MA1100801999999MW1611REMMET106SPECI SAEZ 060624Z 30006KT 7000 -RA FEW003 BKN035 OVC060 22/19 Q1008 RETS TEMPO 3000 TSRA BKN030 FEW040CB=
0198875760999992019010607004-34822-058536FM-15+002099999V0203501N003110182919N009000199+02201+01901999999ADDGA1041+014021999GA2081+018291999GE19AGL   +99999+99999GF199999041999014021999999MA1100801999999MW1611REMMET085METAR SAEZ 060700Z 35006KT 9000 -RA SCT046 OVC060 22/19 Q1008 TEMPO 7000 SHRA BKN030=
0211875760999992019010608004-34822-058536FM-15+002099999V0202801N00411014941CN009999199+02101+01901999999ADDGA1071+014941999GA2071+030481999GA3071+060961999GE19AGL   +99999+99999GF199999071999014941999999MA1100801999999REMMET088METAR SAEZ 060800Z 28008KT 9999 BKN049 BKN100 BKN200 21/19 Q1008 TEMPO 7000 SHRA BKN030=
0163875760999992019010609004-34810-058530FM-12+002099999V0202901N0036103000599010000199+02021+01931100821ADDAY191031AY261031GA1041+013501071GA2071+030001031GA3071+060001021GE19AGL   +99999+99999GF107991041999013501999999MA1999999100581MD1810111+9999MW1021REMSYN004BUFR
0211875760999992019010609004-34822-058536FM-15+002099999V0203201N003110304819N009999199+02101+02001999999ADDGA1041+014021999GA2071+030481999GA3071+060961999GE19AGL   +99999+99999GF199999041999014021999999MA1100701999999REMMET088METAR SAEZ 060900Z 32006KT 9999 SCT046 BKN100 BKN200 21/20 Q1007 TEMPO 7000 SHRA BKN030=
0225875760999992019010609104-34822-058536FM-16+002099999V0203501N002610182919N007000199+02101+02001999999ADDGA1041+012191999GA2021+013721091GA3081+018291999GE19AGL   +99999+99999GF199999041999012191999999MA1100701999999MW1951REMMET096SPECI SAEZ 060910Z 35005KT 7000 -TSRA SCT040 FEW045CB OVC060 21/20 Q1007 TEMPO 7000 SHRA BKN030=
0247875760999992019010609164-34822-058536FM-16+002099999V0200201N00461012191CN003000199+02101+02001999999ADDGA1021+000911999GA2041+012191999GA3021+013721091GA4081+018291999GE19AGL   +99999+99999GF199999021999000911999999MA1100701999999MW1951REMMET102SPECI SAEZ 060916Z 02009KT 3000 TSRA FEW003 SCT040 FEW045CB OVC060 21/20 Q1007 TEMPO 7000 SHRA BKN030=
0102875760999992019010610004-34822-058536FM-15+002099999V0203601N002619999999Y009900199+02101+02001999999ADDMA1100601999999REMMET075METAR SAEZ 061000Z 36005KT CAVOK 21/20 Q1006 RETSRA TEMPO 7000 SHRA BKN030=
0199875760999992019010610054-34822-058536FM-16+002099999V0200301N005110182919N007000199+02101+02001999999ADDGA1041+012191999GA2081+018291999GE19AGL   +99999+99999GF199999041999012191999999MA1100601999999MW1811REMMET086SPECI SAEZ 061005Z 03010KT 7000 SHRA SCT040 OVC060 21/20 Q1006 TEMPO 7000 SHRA BKN030=
0198875760999992019010611004-34822-058536FM-15+002099999V0200201N00411009751CN008000199+02201+02001999999ADDGA1071+009751999GA2081+030481999GE19AGL   +99999+99999GF199999071999009751999999MA1100601999999MW1611REMMET085METAR SAEZ 061100Z 02008KT 8000 -RA BKN032 OVC100 22/20 Q1006 TEMPO 7000 SHRA BKN030=
0211875760999992019010612004-34810-058530FM-12+002099999V0203201N00511030005C9009000199+02171+01941100751ADDAA106004031AA224004031AY191061AY281061GA1011+011401061GA2071+030001031GA3071+060001021GE19AGL   +99999+99999GF107991011999011401999999KA1120M+02661KA2120N+02011MA1999999100521MD1510071+9999MW1611REMSYN004BUFR
0225875760999992019010612004-34822-058536FM-15+002099999V0203201N005710304819N009000199+02201+02001999999ADDGA1021+011581999GA2071+030481999GA3071+060961999GE19AGL   +99999+99999GF199999021999011581999999MA1100701999999MW1611REMMET096METAR COR SAEZ 061200Z 32011KT 9000 -RA FEW038 BKN100 BKN200 22/20 Q1007 TEMPO 7000 SHRA BKN030=
0171875760999992019010613004-34822-058536FM-15+002099999V0203201N004110304819N009999199+02201+02001999999ADDGA1021+013721999GA2081+030481999GE19AGL   +99999+99999GF199999021999013721999999MA1100701999999REMMET064METAR SAEZ 061300Z 32008KT 9999 FEW045 OVC100 22/20 Q1007 NOSIG=
0078875760999992019010614004-34822-058536FM-15+002099999V0200101N004119999999Y009900199+02301+01901999999ADDMA1100501999999REMMET051METAR SAEZ 061400Z 01008KT CAVOK 23/19 Q1005 NOSIG=
0147875760999992019010615004-34810-058530FM-12+002099999V0200201N00571030005C9010000199+02571+01801100281ADDAY161031AY221031GA1061+030001031GA2081+060001021GE19AGL   +99999+99999GF108991061999030001999999MA1999999100051MD1710471+9999MW1021REMSYN004BUFR
0078875760999992019010615004-34822-058536FM-15+002099999V0200101N006219999999Y009900199+02501+01801999999ADDMA1100301999999REMMET051METAR SAEZ 061500Z 01012KT CAVOK 25/18 Q1003 NOSIG=
0078875760999992019010616004-34822-058536FM-15+002099999V0202501N003619999999Y009900199+02701+02001999999ADDMA1100501999999REMMET051METAR SAEZ 061600Z 25007KT CAVOK 27/20 Q1005 NOSIG=
0181875760999992019010617004-34822-058536FM-15+002099999V0202701N003610304819N009000199+02501+02001999999ADDGA1021+010671999GA2081+030481999GE19AGL   +99999+99999GF199999021999010671999999MA1100501999999MW1611REMMET068METAR SAEZ 061700Z 27007KT 9000 -RA FEW035 OVC100 25/20 Q1005 NOSIG=
0142875760999992019010618004-34810-058530FM-12+002099999V0202301N00261030001C9010000199+02551+01971100361ADDAA106999999AY161061AY221061GA1081+030001031GE19AGL   +99999+99999GF108991081999030001999999MA1999999100131MD1010081+9999MW1211REMSYN004BUFR
0078875760999992019010618004-34822-058536FM-15+002099999V0202301N002619999999Y009900199+02601+02101999999ADDMA1100301999999REMMET051METAR SAEZ 061800Z 23005KT CAVOK 26/21 Q1003 NOSIG=
0078875760999992019010619004-34822-058536FM-15+002099999V0202601N002619999999Y009900199+02701+02001999999ADDMA1100301999999REMMET051METAR SAEZ 061900Z 26005KT CAVOK 27/20 Q1003 NOSIG=
0078875760999992019010620004-34822-058536FM-15+002099999V0202501N002119999999Y009900199+02701+02001999999ADDMA1100201999999REMMET051METAR SAEZ 062000Z 25004KT CAVOK 27/20 Q1002 NOSIG=
0141875760999992019010621004-34810-058530FM-12+002099999V0202301N00101060001C9010000199+02651+01861100241ADDAZ101031AZ201031GA1011+030001031GA2061+060001011GE19AGL   +99999+99999GF106991011999030001999999MA1999999100011MD1810121+9999REMSYN004BUFR
0078875760999992019010621004-34822-058536FM-15+002099999V0202201N001519999999Y009900199+02601+02101999999ADDMA1100201999999REMMET051METAR SAEZ 062100Z 22003KT CAVOK 26/21 Q1002 NOSIG=
0078875760999992019010622004-34822-058536FM-15+002099999V0202501N001519999999Y009900199+02401+02101999999ADDMA1100301999999REMMET051METAR SAEZ 062200Z 25003KT CAVOK 24/21 Q1003 NOSIG=
0078875760999992019010623004-34822-058536FM-15+002099999V0202301N002119999999Y009900199+02301+02101999999ADDMA1100201999999REMMET051METAR SAEZ 062300Z 23004KT CAVOK 23/21 Q1002 NOSIG=
0178875760999992019010700004-34810-058530FM-12+002099999V0202701N00151030005C9010000199+02351+02041100341ADDAA101999999AZ101061AZ201061GA1061+030001031GA2081+060001021GE19AGL   +99999+99999GF108991061999030001999999KA1120M+02781KA2120N+02111MA1999999100101MD1310091+9999REMSYN004BUFR
0078875760999992019010700004-34822-058536FM-15+002099999V0202601N001519999999Y009900199+02301+02001999999ADDMA1100301999999REMMET051METAR SAEZ 070000Z 26003KT CAVOK 23/20 Q1003 NOSIG=
0090875760999992019010701004-34822-058536FM-15+002099999V0202901N002619999999Y009900199+02301+02101999999ADDMA1100401999999REMMET063METAR SAEZ 070100Z 29005KT CAVOK 23/21 Q1004 8000 -RADZ SCT040=
0090875760999992019010702004-34822-058536FM-15+002099999V0209999V001519999999Y009900199+02301+02001999999ADDMA1100301999999REMMET063METAR SAEZ 070200Z VRB03KT CAVOK 23/20 Q1003 8000 -RADZ SCT040=
0125875760999992019010703004-34810-058530FM-12+002099999V0200201N00261030001C9010000199+02261+02051100281ADDAZ101031AZ201031GA1081+030001031GE19AGL   +99999+99999GF108991081999030001999999MA1999999100051MD1610051+9999REMSYN004BUFR
0090875760999992019010703004-34822-058536FM-15+002099999V0200201N002619999999Y009900199+02301+02001999999ADDMA1100201999999REMMET063METAR SAEZ 070300Z 02005KT CAVOK 23/20 Q1002 8000 -RADZ BKN040=
0181875760999992019010704004-34822-058536FM-15+002099999V0209999V001010304819N009000199+02301+02001999999ADDGA1021+013721999GA2081+030481999GE19AGL   +99999+99999GF199999021999013721999999MA1100101999999MW1611REMMET068METAR SAEZ 070400Z VRB02KT 9000 -RA FEW045 OVC100 23/20 Q1001 NOSIG=
0181875760999992019010705004-34822-058536FM-15+002099999V0209999V001510304819N009000199+02201+02001999999ADDGA1021+013721999GA2081+030481999GE19AGL   +99999+99999GF199999021999013721999999MA1100101999999MW1611REMMET068METAR SAEZ 070500Z VRB03KT 9000 -RA FEW045 OVC100 22/20 Q1001 NOSIG=
0142875760999992019010706004-34810-058530FM-12+002099999V0202701N00151030001C9010000199+02161+02021100111ADDAA106999999AY161061AY221061GA1081+030001031GE19AGL   +99999+99999GF108991081999030001999999MA1999999099881MD1710171+9999MW1211REMSYN004BUFR
0078875760999992019010706004-34822-058536FM-15+002099999V0209999V001519999999Y009900199+02101+02001999999ADDMA1100101999999REMMET051METAR SAEZ 070600Z VRB03KT CAVOK 21/20 Q1001 NOSIG=
0117875760999992019010707004-34822-058536FM-15+002099999V0209999V001512200019N009000199+02101+02001999999ADDGF100991999999999999999999MA1100001999999MW1611REMMET058METAR SAEZ 070700Z VRB03KT 9000 -RA NSC 21/20 Q1000 NOSIG=
0181875760999992019010708004-34822-058536FM-15+002099999V0209999V001510304819N009000199+02001+02001999999ADDGA1041+009141999GA2071+030481999GE19AGL   +99999+99999GF199999041999009141999999MA1099901999999MW1611REMMET068METAR SAEZ 070800Z VRB03KT 9000 -RA SCT030 BKN100 20/20 Q0999 NOSIG=
0131875760999992019010709004-34810-058530FM-12+002099999V0202001N00151030001C9010000199+02071+01991099801ADDAY161031AY221031GA1081+030001031GE19AGL   +99999+99999GF108991081999030001999999MA1999999099571MD1710311+9999MW1211REMSYN004BUFR
0078875760999992019010709004-34822-058536FM-15+002099999V0209999V001519999999Y009900199+02001+02001999999ADDMA1099801999999REMMET051METAR SAEZ 070900Z VRB03KT CAVOK 20/20 Q0998 NOSIG=
0078875760999992019010710004-34822-058536FM-15+002099999V0202401N002119999999Y009900199+02001+02001999999ADDMA1099901999999REMMET051METAR SAEZ 071000Z 24004KT CAVOK 20/20 Q0999 NOSIG=
0078875760999992019010711004-34822-058536FM-15+002099999V0201901N002119999999Y009900199+02201+02001999999ADDMA1099901999999REMMET051METAR SAEZ 071100Z 19004KT CAVOK 22/20 Q0999 NOSIG=
0211875760999992019010712004-34810-058530FM-12+002099999V0202301N00261030005C9010000199+02211+01991099921ADDAA106000131AA224000131AY161061AY221061GA1011+015001061GA2051+030001031GA3081+060001021GE19AGL   +99999+99999GF108991011999015001999999KA1120M+02401KA2120N+02021MA1999999099691MD1310121+9999MW1031REMSYN004BUFR
0086875760999992019010712004-34822-058536FM-15+002099999V0202101V002119999999Y009900199+02201+02101999999ADDMA1099901999999REMMET059METAR SAEZ 071200Z 21004KT 160V250 CAVOK 22/21 Q0999 NOSIG=
0171875760999992019010713004-34822-058536FM-15+002099999V0202601N003610304819N009999199+02201+02101999999ADDGA1021+004881999GA2081+030481999GE19AGL   +99999+99999GF199999021999004881999999MA1100001999999REMMET064METAR SAEZ 071300Z 26007KT 9999 FEW016 OVC100 22/21 Q1000 NOSIG=
0171875760999992019010714004-34822-058536FM-15+002099999V0202301N003110304819N009999199+02301+02101999999ADDGA1041+005181999GA2081+030481999GE19AGL   +99999+99999GF199999041999005181999999MA1099901999999REMMET064METAR SAEZ 071400Z 23006KT 9999 SCT017 OVC100 23/21 Q0999 NOSIG=
0125875760999992019010715004-34810-058530FM-12+002099999V0202301N00211030001C9010000199+02351+02041099971ADDAZ101031AZ201031GA1081+030001031GE19AGL   +99999+99999GF108991081999030001999999MA1999999099741MD1010051+9999REMSYN004BUFR
0078875760999992019010715004-34822-058536FM-15+002099999V0202301N004119999999Y009900199+02401+02101999999ADDMA1099901999999REMMET051METAR SAEZ 071500Z 23008KT CAVOK 24/21 Q0999 NOSIG=
0181875760999992019010715114-34822-058536FM-16+002099999V0202501N003610274319N009000199+02401+02101999999ADDGA1021+005491999GA2081+027431999GE19AGL   +99999+99999GF199999021999005491999999MA1099901999999MW1611REMMET068SPECI SAEZ 071511Z 25007KT 9000 -RA FEW018 OVC090 24/21 Q0999 NOSIG=
0178875760999992019010716004-34822-058536FM-15+002099999V0202001V003110274319N009999199+02501+02201999999ADDGA1041+005491999GA2081+027431999GE19AGL   +99999+99999GF199999041999005491999999MA1099901999999REMMET071METAR SAEZ 071600Z 20006KT 150V240 9999 SCT018 OVC090 25/22 Q0999NOSIG=
0170875760999992019010717004-34822-058536FM-15+002099999V0202701N003110274319N009999199+02501+02101999999ADDGA1041+007321999GA2081+027431999GE19AGL   +99999+99999GF199999041999007321999999MA1099801999999REMMET063METAR SAEZ 071700Z 27006KT 9999 SCT024 OVC090 25/21 Q0998NOSIG=
0158875760999992019010718004-34810-058530FM-12+002099999V0202701N0036103000199010000199+02521+02071099931ADDAA106999999AY161061AY221061GA1021+007501061GA2081+030001031GE19AGL   +99999+99999GF108991021999007501999999MA1999999099701MD1510041+9999MW1021REMSYN004BUFR
0171875760999992019010718004-34822-058536FM-15+002099999V0202501N004110304819N009999199+02501+02101999999ADDGA1021+007621999GA2081+030481999GE19AGL   +99999+99999GF199999021999007621999999MA1099901999999REMMET064METAR SAEZ 071800Z 25008KT 9999 FEW025 OVC100 25/21 Q0999 NOSIG=
0171875760999992019010719004-34822-058536FM-15+002099999V0202501N004110304819N009999199+02601+02001999999ADDGA1021+007321999GA2081+030481999GE19AGL   +99999+99999GF199999021999007321999999MA1099901999999REMMET064METAR SAEZ 071900Z 25008KT 9999 FEW024 OVC100 26/20 Q0999 NOSIG=
0148875760999992019010720004-34822-058536FM-15+002099999V0202501N003119999999N009999199+02701+02101999999ADDGA1041+008531999GE19AGL   +99999+99999GF199999041999008531999999MA1099901999999REMMET057METAR SAEZ 072000Z 25006KT 9999 SCT028 27/21 Q0999 NOSIG=
0141875760999992019010721004-34810-058530FM-12+002099999V0202701N00411060001C9010000199+02801+02071099931ADDAZ101031AZ201031GA1021+009301061GA2051+060001021GE19AGL   +99999+99999GF105991021999009301999999MA1999999099701MD1410001+9999REMSYN004BUFR
0171875760999992019010721004-34822-058536FM-15+002099999V0202701N003610609619N009999199+02801+02101999999ADDGA1021+009451999GA2071+060961999GE19AGL   +99999+99999GF199999021999009451999999MA1099901999999REMMET064METAR SAEZ 072100Z 27007KT 9999 FEW031 BKN200 28/21 Q0999 NOSIG=
0148875760999992019010722004-34822-058536FM-15+002099999V0202401N002119999999N009999199+02701+02201999999ADDGA1021+009751999GE19AGL   +99999+99999GF199999021999009751999999MA1100001999999REMMET057METAR SAEZ 072200Z 24004KT 9999 FEW032 27/22 Q1000 NOSIG=
0078875760999992019010723004-34822-058536FM-15+002099999V0203101N002119999999Y009900199+02501+02101999999ADDMA1100001999999REMMET051METAR SAEZ 072300Z 31004KT CAVOK 25/21 Q1000 NOSIG=
0124875760999992019010800004-34810-058530FM-12+002099999V0203401N0015122000199010000199+02521+02081100131ADDAA101999999AZ101061AZ201061GF100991999999999999999999KA1120M+02791KA2120N+02181MA1999999099901MD1210201+9999REMSYN004BUFR
0078875760999992019010800004-34822-058536FM-15+002099999V0203401N002119999999Y009900199+02401+02101999999ADDMA1100101999999REMMET051METAR SAEZ 080000Z 34004KT CAVOK 24/21 Q1001 NOSIG=
0078875760999992019010801004-34822-058536FM-15+002099999V0203301N002619999999Y009900199+02401+02101999999ADDMA1100201999999REMMET051METAR SAEZ 080100Z 33005KT CAVOK 24/21 Q1002 NOSIG=
0078875760999992019010802004-34822-058536FM-15+002099999V0203401N002619999999Y009900199+02401+02101999999ADDMA1100201999999REMMET051METAR SAEZ 080200Z 34005KT CAVOK 24/21 Q1002 NOSIG=
0087875760999992019010803004-34810-058530FM-12+002099999V0203601N0026122000199010000199+02411+02001100301ADDAZ101031AZ201031GF100991999999999999999999MA1999999100061MD1210161+9999REMSYN004BUFR
0078875760999992019010803004-34822-058536FM-15+002099999V0203501N003119999999Y009900199+02301+02001999999ADDMA1100301999999REMMET051METAR SAEZ 080300Z 35006KT CAVOK 23/20 Q1003 NOSIG=
0078875760999992019010804004-34822-058536FM-15+002099999V0203501N003119999999Y009900199+02301+02001999999ADDMA1100301999999REMMET051METAR SAEZ 080400Z 35006KT CAVOK 23/20 Q1003 NOSIG=
0078875760999992019010805004-34822-058536FM-15+002099999V0203601N003119999999Y009900199+02201+02101999999ADDMA1100301999999REMMET051METAR SAEZ 080500Z 36006KT CAVOK 22/21 Q1003 NOSIG=
0098875760999992019010806004-34810-058530FM-12+002099999V0203401N0026122000199010000199+02321+02081100391ADDAA101999999AZ101061AZ201061GF100991999999999999999999MA1999999100161MD1210091+9999REMSYN004BUFR
0078875760999992019010806004-34822-058536FM-15+002099999V0203301N002619999999Y009900199+02201+02101999999ADDMA1100401999999REMMET051METAR SAEZ 080600Z 33005KT CAVOK 22/21 Q1004 NOSIG=
0078875760999992019010807004-34822-058536FM-15+002099999V0203401N002619999999Y009900199+02101+02001999999ADDMA1100401999999REMMET051METAR SAEZ 080700Z 34005KT CAVOK 21/20 Q1004 NOSIG=
0078875760999992019010808004-34822-058536FM-15+002099999V0203201N003119999999Y009900199+02101+02001999999ADDMA1100501999999REMMET051METAR SAEZ 080800Z 32006KT CAVOK 21/20 Q1005 NOSIG=
0087875760999992019010809004-34810-058530FM-12+002099999V0203201N0036122000199010000199+02161+01911100621ADDAZ101031AZ201031GF100991999999999999999999MA1999999100381MD1210231+9999REMSYN004BUFR
0078875760999992019010809004-34822-058536FM-15+002099999V0203201N003619999999Y009900199+02201+02001999999ADDMA1100601999999REMMET051METAR SAEZ 080900Z 32007KT CAVOK 22/20 Q1006 NOSIG=
0078875760999992019010810004-34822-058536FM-15+002099999V0203001N003619999999Y009900199+02301+02001999999ADDMA1100701999999REMMET051METAR SAEZ 081000Z 30007KT CAVOK 23/20 Q1007 NOSIG=
0078875760999992019010811004-34822-058536FM-15+002099999V0202901N004619999999Y009900199+02501+02101999999ADDMA1100801999999REMMET051METAR SAEZ 081100Z 29009KT CAVOK 25/21 Q1008 NOSIG=
0162875760999992019010812004-34810-058530FM-12+002099999V0202901N0041122000199010000199+02611+02021100901ADDAA124999999AZ101061AZ201061GA1011+030001031GE19AGL   +99999+99999GF102991011999030001999999KA1120M+02611KA2120N+02151MA1999999100661MD1210281+9999REMSYN004BUFR
0078875760999992019010812004-34822-058536FM-15+002099999V0202901N004119999999Y009900199+02701+02101999999ADDMA1100901999999REMMET051METAR SAEZ 081200Z 29008KT CAVOK 27/21 Q1009 NOSIG=
0078875760999992019010813004-34822-058536FM-15+002099999V0202801N005119999999Y009900199+02801+02201999999ADDMA1100901999999REMMET051METAR SAEZ 081300Z 28010KT CAVOK 28/22 Q1009 NOSIG=
0148875760999992019010814004-34822-058536FM-15+002099999V0202901N004119999999N009999199+03001+02201999999ADDGA1041+009751999GE19AGL   +99999+99999GF199999041999009751999999MA1101001999999REMMET057METAR SAEZ 081400Z 29008KT 9999 SCT032 30/22 Q1010 NOSIG=
0160875760999992019010815004-34810-058530FM-12+002099999V0202301N00461999999C9010000199+02871+02111100971ADDAZ101031AZ201031GA1041+010501081GA2041+060001021GE19AGL   +99999+99999GF104991041999010501999999MA1999999100741MD1110081+9999REMSYN004BUFREQDQ01 060003SCOCIG
0148875760999992019010815004-34822-058536FM-15+002099999V0202501N004619999999N009999199+02901+02101999999ADDGA1041+010671999GE19AGL   +99999+99999GF199999041999010671999999MA1100901999999REMMET057METAR SAEZ 081500Z 25009KT 9999 SCT035 29/21 Q1009 NOSIG=
0148875760999992019010816004-34822-058536FM-15+002099999V0202001N002119999999N009999199+03001+02001999999ADDGA1041+013111999GE19AGL   +99999+99999GF199999041999013111999999MA1100901999999REMMET057METAR SAEZ 081600Z 20004KT 9999 SCT043 30/20 Q1009 NOSIG=
0148875760999992019010817004-34822-058536FM-15+002099999V0201901N00261013721CN009999199+02801+01901999999ADDGA1071+013721999GE19AGL   +99999+99999GF199999071999013721999999MA1100901999999REMMET057METAR SAEZ 081700Z 19005KT 9999 BKN045 28/19 Q1009 NOSIG=
0152875760999992019010818004-34810-058530FM-12+002099999V0201601N0031106000199010000199+02911+01851100881ADDAA101999999AZ101061AZ201061GA1031+015001081GA2071+060001021GE19AGL   +99999+99999GF107991031999015001999999MA1999999100651MD1810091+9999REMSYN004BUFR
0078875760999992019010818004-34822-058536FM-15+002099999V0201501N003119999999Y009900199+02801+01901999999ADDMA1100901999999REMMET051METAR SAEZ 081800Z 15006KT CAVOK 28/19 Q1009 NOSIG=
0078875760999992019010819004-34822-058536FM-15+002099999V0201101N004619999999Y009900199+03001+01901999999ADDMA1100801999999REMMET051METAR SAEZ 081900Z 11009KT CAVOK 30/19 Q1008 NOSIG=
0148875760999992019010820004-34822-058536FM-15+002099999V0200701N006219999999N009999199+03001+02001999999ADDGA1041+013721999GE19AGL   +99999+99999GF199999041999013721999999MA1100701999999REMMET057METAR SAEZ 082000Z 07012KT 9999 SCT045 30/20 Q1007 NOSIG=
0141875760999992019010821004-34810-058530FM-12+002099999V0200501N0062106000199010000199+03111+01881100681ADDAZ101031AZ201031GA1041+030001031GA2051+060001021GE19AGL   +99999+99999GF105991041999030001999999MA1999999100451MD1710201+9999REMSYN004BUFR
0078875760999992019010821004-34822-058536FM-15+002099999V0200601N005719999999Y009900199+03001+01801999999ADDMA1100601999999REMMET051METAR SAEZ 082100Z 06011KT CAVOK 30/18 Q1006 NOSIG=
0078875760999992019010822004-34822-058536FM-15+002099999V0200501N004619999999Y009900199+03001+01901999999ADDMA1100701999999REMMET051METAR SAEZ 082200Z 05009KT CAVOK 30/19 Q1007 NOSIG=
0078875760999992019010823004-34822-058536FM-15+002099999V0200701N005119999999Y009900199+02901+01901999999ADDMA1100701999999REMMET051METAR SAEZ 082300Z 07010KT CAVOK 29/19 Q1007 NOSIG=
0178875760999992019010900004-34810-058530FM-12+002099999V0200901N0036122000199010000199+02771+01861100731ADDAA101999999AZ101061AZ201061GA1021+015001061GA2031+060001021GE19AGL   +99999+99999GF104991021999015001999999KA1120M+03181KA2120N+02601MA1999999100501MD1110051+9999REMSYN004BUFR
0078875760999992019010900004-34822-058536FM-15+002099999V0201001N004119999999Y009900199+02701+01901999999ADDMA1100701999999REMMET051METAR SAEZ 090000Z 10008KT CAVOK 27/19 Q1007 NOSIG=
0097875760999992019010901004-34822-058536FM-15+002099999V0200901N005119999999Y009900199+02701+01901999999ADDMA1100701999999REMMET070METAR SAEZ 090100Z 09010KT CAVOK 27/19 Q1007 NOSIG RMK LGHT OBS TO S0=
0097875760999992019010902004-34822-058536FM-15+002099999V0200901N004619999999Y009900199+02601+02101999999ADDMA1100701999999REMMET070METAR SAEZ 090200Z 09009KT CAVOK 26/21 Q1007 NOSIG RMK LGHT OBS TO S0=
0125875760999992019010903004-34810-058530FM-12+002099999V0200901N0046122000199010000199+02671+02141100691ADDAZ101031AZ201031GA1031+015001061GE19AGL   +99999+99999GF104991031999015001999999MA1999999100461MD1710041+9999REMSYN004BUFR
0078875760999992019010903004-34822-058536FM-15+002099999V0200801N004619999999Y009900199+02601+02201999999ADDMA1100601999999REMMET051METAR SAEZ 090300Z 08009KT CAVOK 26/22 Q1006 NOSIG=
0078875760999992019010904004-34822-058536FM-15+002099999V0200801N004119999999Y009900199+02601+02201999999ADDMA1100601999999REMMET051METAR SAEZ 090400Z 08008KT CAVOK 26/22 Q1006 NOSIG=
0078875760999992019010905004-34822-058536FM-15+002099999V0200601N003619999999Y009900199+02601+02301999999ADDMA1100501999999REMMET051METAR SAEZ 090500Z 06007KT CAVOK 26/23 Q1005 NOSIG=
0152875760999992019010906004-34810-058530FM-12+002099999V0200501N0036122000199010000199+02611+02171100431ADDAA101999999AZ101061AZ201061GA1011+015001061GA2031+030001031GE19AGL   +99999+99999GF103991011999015001999999MA1999999100201MD1710271+9999REMSYN004BUFR
0086875760999992019010906004-34822-058536FM-15+002099999V0200501V003619999999Y009900199+02601+02201999999ADDMA1100401999999REMMET059METAR SAEZ 090600Z 05007KT 020V100 CAVOK 26/22 Q1004 NOSIG=
0171875760999992019010907004-34822-058536FM-15+002099999V0203501N00151015241CN009999199+02601+02201999999ADDGA1041+013721999GA2041+015241999GE19AGL   +99999+99999GF199999041999013721999999MA1100401999999REMMET064METAR SAEZ 090700Z 35003KT 9999 SCT045 SCT050 26/22 Q1004 NOSIG=
0148875760999992019010908004-34822-058536FM-15+002099999V0203501N003119999999N009999199+02601+02201999999ADDGA1021+012501999GE19AGL   +99999+99999GF199999021999012501999999MA1100401999999REMMET057METAR SAEZ 090800Z 35006KT 9999 FEW041 26/22 Q1004 NOSIG=
0160875760999992019010909004-34810-058530FM-12+002099999V0203201N00261999999C9010000199+02521+02141100581ADDAZ101031AZ201031GA1021+011101061GA2031+013501081GE19AGL   +99999+99999GF104991021999011101999999MA1999999100341MD1310151+9999REMSYN004BUFREQDQ01 013503SCOCIG
0171875760999992019010909004-34822-058536FM-15+002099999V0203101N00311013721CN009999199+02501+02201999999ADDGA1021+011281999GA2041+013721999GE19AGL   +99999+99999GF199999021999011281999999MA1100601999999REMMET064METAR SAEZ 090900Z 31006KT 9999 FEW037 SCT045 25/22 Q1006 NOSIG=
0195875760999992019010909434-34822-058536FM-16+002099999V0202501N01081012191CN009000199+02401+01801999999ADDGA1071+012191999GA2021+015241081GE19AGL   +99999+99999GF199999071999012191999999MA1100701999999MW1611OC102271REMMET074SPECI SAEZ 090943Z 25021G44KT 9000 -RA BKN040 FEW050TCU 24/18 Q1007 NOSIG=
0201875760999992019010910004-34822-058536FM-15+002099999V0202501N00931010671CN005000199+02001+01701999999ADDGA1071+010671999GA2071+012191999GE19AGL   +99999+99999GF199999071999010671999999MA1100801999999MW1631OC101601REMMET080METAR SAEZ 091000Z 25018G31KT 5000 RA BKN035 BKN040 20/17 Q1008 BECMG 7000 SHRA=
0189875760999992019010910264-34822-058536FM-16+002099999V0201901V00261030481CN009000199+01901+01801999999ADDGA1041+010671999GA2041+030481999GE19AGL   +99999+99999GF199999041999010671999999MA1100701999999MW1611REMMET076SPECI SAEZ 091026Z 19005KT 130V240 9000 -RA SCT035 SCT100 19/18 Q1007 NOSIG=
0078875760999992019010911004-34822-058536FM-15+002099999V0201501N002619999999Y009900199+02101+01801999999ADDMA1100501999999REMMET051METAR SAEZ 091100Z 15005KT CAVOK 21/18 Q1005 NOSIG=
0195875760999992019010912004-34810-058530FM-12+002099999V0202301N00311060001C9010000199+02261+01851100571ADDAA106000531AA224000531AY161061AY221061GA1031+030001031GA2031+060001021GE19AGL   +99999+99999GF105991031999030001999999KA1120M+02801KA2120N+02001MA1999999100341MD1410001+9999MW1011REMSYN004BUFR
0086875760999992019010912004-34822-058536FM-15+002099999V0202401V002619999999Y009900199+02301+02001999999ADDMA1100501999999REMMET059METAR SAEZ 091200Z 24005KT 220V290 CAVOK 23/20 Q1005 NOSIG=
0078875760999992019010913004-34822-058536FM-15+002099999V0202601N003119999999Y009900199+02401+01901999999ADDMA1100601999999REMMET051METAR SAEZ 091300Z 26006KT CAVOK 24/19 Q1006 NOSIG=
0078875760999992019010914004-34822-058536FM-15+002099999V0202601N004119999999Y009900199+02401+02001999999ADDMA1100701999999REMMET051METAR SAEZ 091400Z 26008KT CAVOK 24/20 Q1007 NOSIG=
0141875760999992019010915004-34810-058530FM-12+002099999V0202501N00361030005C9010000199+02571+01961100611ADDAZ101031AZ201031GA1071+030001031GA2071+060001021GE19AGL   +99999+99999GF107991071999030001999999MA1999999100381MD1010041+9999REMSYN004BUFR
0078875760999992019010915004-34822-058536FM-15+002099999V0202501N003619999999Y009900199+02501+02001999999ADDMA1100601999999REMMET051METAR SAEZ 091500Z 25007KT CAVOK 25/20 Q1006 NOSIG=
0202875760999992019010916004-34822-058536FM-15+002099999V0202101V004110304819N009999199+02501+01901999999ADDGA1021+012191999GA2071+030481999GA3071+060961999GE19AGL   +99999+99999GF199999021999012191999999MA1100601999999REMMET079METAR SAEZ 091600Z 21008KT 170V250 9999 FEW040 BKN100 BKN200 25/19 Q1006 NOSIG=
0086875760999992019010917004-34822-058536FM-15+002099999V0201901V003619999999Y009900199+02501+02001999999ADDMA1100601999999REMMET059METAR SAEZ 091700Z 19007KT 140V220 CAVOK 25/20 Q1006 NOSIG=
0168875760999992019010918004-34810-058530FM-12+002099999V0201801N0031106000199010000199+02711+01721100501ADDAA101999999AZ101061AZ201061GA1011+015001081GA2031+030001031GA3061+060001021GE19AGL   +99999+99999GF106991011999015001999999MA1999999100261MD1810121+9999REMSYN004BUFR
0078875760999992019010918004-34822-058536FM-15+002099999V0201701N003119999999Y009900199+02701+01901999999ADDMA1100501999999REMMET051METAR SAEZ 091800Z 17006KT CAVOK 27/19 Q1005 NOSIG=
0171875760999992019010919004-34822-058536FM-15+002099999V0201701N004110609619N009999199+02601+01901999999ADDGA1021+009751999GA2071+060961999GE19AGL   +99999+99999GF199999021999009751999999MA1100401999999REMMET064METAR SAEZ 091900Z 17008KT 9999 FEW032 BKN200 26/19 Q1004 NOSIG=
0171875760999992019010920004-34822-058536FM-15+002099999V0201501N003110304819N009999199+02601+01901999999ADDGA1041+011581999GA2071+030481999GE19AGL   +99999+99999GF199999041999011581999999MA1100601999999REMMET064METAR SAEZ 092000Z 15006KT 9999 SCT038 BKN100 26/19 Q1006 NOSIG=
0157875760999992019010921004-34810-058530FM-12+002099999V0201801N00311013805C9010000199+02571+01841100691ADDAZ101031AZ201031GA1021+011401081GA2051+013801061GA3081+030001031GE19AGL   +99999+99999GF108991021999011401999999MA1999999100461MD1310201+9999REMSYN004BUFR
0194875760999992019010921004-34822-058536FM-15+002099999V0201701N003110140219N009999199+02501+01901999999ADDGA1021+011581999GA2071+014021999GA3081+030481999GE19AGL   +99999+99999GF199999021999011581999999MA1100701999999REMMET071METAR SAEZ 092100Z 17006KT 9999 FEW038 BKN046 OVC100 25/19 Q1007 NOSIG=
0194875760999992019010922004-34822-058536FM-15+002099999V0201701N00311013411CN009999199+02401+01901999999ADDGA1021+011281999GA2041+013411999GA3081+030481999GE19AGL   +99999+99999GF199999021999011281999999MA1100701999999REMMET071METAR SAEZ 092200Z 17006KT 9999 FEW037 SCT044 OVC100 24/19 Q1007 NOSIG=
0171875760999992019010923004-34822-058536FM-15+002099999V0201701N002610304819N009999199+02401+01801999999ADDGA1041+011281999GA2081+030481999GE19AGL   +99999+99999GF199999041999011281999999MA1100801999999REMMET064METAR SAEZ 092300Z 17005KT 9999 SCT037 OVC100 24/18 Q1008 NOSIG=
0178875760999992019011000004-34810-058530FM-12+002099999V0201601N0026106000199010000199+02321+01751100911ADDAA101999999AZ101061AZ201061GA1041+015001051GA2061+060001021GE19AGL   +99999+99999GF106991041999015001999999KA1120M+02761KA2120N+02221MA1999999100681MD1210211+9999REMSYN004BUFR
0078875760999992019011000004-34822-058536FM-15+002099999V0201701N002619999999Y009900199+02301+01801999999ADDMA1100901999999REMMET051METAR SAEZ 100000Z 17005KT CAVOK 23/18 Q1009 NOSIG=
0078875760999992019011001004-34822-058536FM-15+002099999V0201801N002119999999Y009900199+02201+01801999999ADDMA1101001999999REMMET051METAR SAEZ 100100Z 18004KT CAVOK 22/18 Q1010 NOSIG=
0078875760999992019011002004-34822-058536FM-15+002099999V0201701N004119999999Y009900199+02201+01801999999ADDMA1101001999999REMMET051METAR SAEZ 100200Z 17008KT CAVOK 22/18 Q1010 NOSIG=
0141875760999992019011003004-34810-058530FM-12+002099999V0201401N00411060001C9010000199+02201+01821101011ADDAZ101031AZ201031GA1011+030001031GA2071+060001021GE19AGL   +99999+99999GF107991011999030001999999MA1999999100781MD1010111+9999REMSYN004BUFR
0078875760999992019011003004-34822-058536FM-15+002099999V0201501N004119999999Y009900199+02101+01801999999ADDMA1101001999999REMMET051METAR SAEZ 100300Z 15008KT CAVOK 21/18 Q1010 NOSIG=
0148875760999992019011004004-34822-058536FM-15+002099999V0201501N00671003961CN009999199+02101+01901999999ADDGA1071+003961999GE19AGL   +99999+99999GF199999071999003961999999MA1100901999999REMMET057METAR SAEZ 100400Z 15013KT 9999 BKN013 21/19 Q1009 NOSIG=
0204875760999992019011005004-34822-058536FM-15+002099999V0201401N00511018291CN009999199+02101+01801999999ADDGA1041+007621999GA2041+018291999GA3071+060961999GE19AGL   +99999+99999GF199999041999007621999999MA1101001999999REMMET081METAR SAEZ 100500Z 14010KT 9999 SCT025 SCT060 BKN200 21/18 Q1010 TEMPO 7000 SHRA=
0152875760999992019011006004-34810-058530FM-12+002099999V0201401N00411060001C9010000199+02011+01801100981ADDAA101999999AZ101061AZ201061GA1021+030001031GA2061+060001021GE19AGL   +99999+99999GF106991021999030001999999MA1999999100741MD1810041+9999REMSYN004BUFR
0088875760999992019011006004-34822-058536FM-15+002099999V0201501N004119999999Y009900199+01901+01701999999ADDMA1100901999999REMMET061METAR SAEZ 100600Z 15008KT CAVOK 19/17 Q1009 TEMPO 7000 SHRA=
0088875760999992019011007004-34822-058536FM-15+002099999V0201501N003619999999Y009900199+01901+01501999999ADDMA1101001999999REMMET061METAR SAEZ 100700Z 15007KT CAVOK 19/15 Q1010 TEMPO 7000 SHRA=
0078875760999992019011008004-34822-058536FM-15+002099999V0201501N003119999999Y009900199+01801+01501999999ADDMA1101101999999REMMET051METAR SAEZ 100800Z 15006KT CAVOK 18/15 Q1011 NOSIG=
0141875760999992019011009004-34810-058530FM-12+002099999V0201401N00411030005C9010000199+01871+01571101101ADDAZ101031AZ201031GA1061+030001031GA2071+060001021GE19AGL   +99999+99999GF107991061999030001999999MA1999999100861MD1210121+9999REMSYN004BUFR
0078875760999992019011009004-34822-058536FM-15+002099999V0201301N004119999999Y009900199+01801+01501999999ADDMA1101101999999REMMET051METAR SAEZ 100900Z 13008KT CAVOK 18/15 Q1011 NOSIG=
0078875760999992019011010004-34822-058536FM-15+002099999V0201601N004119999999Y009900199+01801+01501999999ADDMA1101201999999REMMET051METAR SAEZ 101000Z 16008KT CAVOK 18/15 Q1012 NOSIG=
0078875760999992019011011004-34822-058536FM-15+002099999V0201501N002619999999Y009900199+01801+01601999999ADDMA1101301999999REMMET051METAR SAEZ 101100Z 15005KT CAVOK 18/16 Q1013 NOSIG=
0162875760999992019011012004-34810-058530FM-12+002099999V0202001N00211018001C9010000199+01901+01521101441ADDAA101999999AZ101061AZ201061GA1081+018001051GE19AGL   +99999+99999GF108991081999018001999999KA1120M+02321KA2120N+01751MA1999999101201MD1210331+9999REMSYN004BUFR
0086875760999992019011012004-34822-058536FM-15+002099999V0201901V002119999999Y009900199+01901+01601999999ADDMA1101401999999REMMET059METAR SAEZ 101200Z 19004KT 150V220 CAVOK 19/16 Q1014 NOSIG=
0078875760999992019011013004-34822-058536FM-15+002099999V0201801N003619999999Y009900199+01901+01601999999ADDMA1101401999999REMMET051METAR SAEZ 101300Z 18007KT CAVOK 19/16 Q1014 NOSIG=
0179875760999992019011014004-34822-058536FM-15+002099999V0201701V004610213419N009999199+02101+01601999999ADDGA1021+007621999GA2081+021341999GE19AGL   +99999+99999GF199999021999007621999999MA1101401999999REMMET072METAR SAEZ 101400Z 17009KT 140V200 9999 FEW025 OVC070 21/16 Q1014 NOSIG=
0141875760999992019011015004-34810-058530FM-12+002099999V0201801N00311008405C9010000199+02121+01521101521ADDAZ101031AZ201031GA1051+008401061GA2081+021001051GE19AGL   +99999+99999GF108991051999008401999999MA1999999101291MD1210091+9999REMSYN004BUFR
0179875760999992019011015004-34822-058536FM-15+002099999V0201801V00411008531CN009999199+02101+01601999999ADDGA1071+008531999GA2081+021341999GE19AGL   +99999+99999GF199999071999008531999999MA1101501999999REMMET072METAR SAEZ 101500Z 18008KT 130V210 9999 BKN028 OVC070 21/16 Q1015 NOSIG=
0212875760999992019011015354-34822-058536FM-16+002099999V0201801V00361010061CN005000199+02001+01701999999ADDGA1021+007921999GA2041+010061999GA3081+013721999GE19AGL   +99999+99999GF199999021999007921999999MA1101501999999MW1611REMMET083SPECI SAEZ 101535Z 18007KT 150V210 5000 -RA FEW026 SCT033 OVC045 20/17 Q1015 NOSIG=
0181875760999992019011016004-34822-058536FM-15+002099999V0201701N004110304819N008000199+02001+01701999999ADDGA1021+007921999GA2081+030481999GE19AGL   +99999+99999GF199999021999007921999999MA1101501999999MW1611REMMET068METAR SAEZ 101600Z 17008KT 8000 -RA FEW026 OVC100 20/17 Q1015 NOSIG=
0194875760999992019011017004-34822-058536FM-15+002099999V0201801N00461015241CN009999199+02101+01601999999ADDGA1041+008231999GA2041+015241999GA3081+030481999GE19AGL   +99999+99999GF199999041999008231999999MA1101501999999REMMET071METAR SAEZ 101700Z 18009KT 9999 SCT027 SCT050 OVC100 21/16 Q1015 NOSIG=
0174875760999992019011018004-34810-058530FM-12+002099999V0202001N00461012001C9010000199+02201+01561101561ADDAA106000331AY161061AY221061GA1021+008101061GA2031+012001061GA3071+018001051GE19AGL   +99999+99999GF107991021999008101999999MA1999999101321MD1010031+9999MW1011REMSYN004BUFR
0194875760999992019011018004-34822-058536FM-15+002099999V0201901N00511012191CN009999199+02201+01701999999ADDGA1021+008231999GA2041+012191999GA3071+018291999GE19AGL   +99999+99999GF199999021999008231999999MA1101501999999REMMET071METAR SAEZ 101800Z 19010KT 9999 FEW027 SCT040 BKN060 22/17 Q1015 NOSIG=
0202875760999992019011019004-34822-058536FM-15+002099999V0201801V00511010671CN009999199+02201+01601999999ADDGA1021+008231999GA2041+010671999GA3071+018291999GE19AGL   +99999+99999GF199999021999008231999999MA1101501999999REMMET079METAR SAEZ 101900Z 18010KT 130V220 9999 FEW027 SCT035 BKN060 22/16 Q1015 NOSIG=
0202875760999992019011020004-34822-058536FM-15+002099999V0202001V00361014631CN009999199+02101+01501999999ADDGA1021+008531999GA2041+014631999GA3071+018291999GE19AGL   +99999+99999GF199999021999008531999999MA1101501999999REMMET079METAR SAEZ 102000Z 20007KT 150V240 9999 FEW028 SCT048 BKN060 21/15 Q1015 NOSIG=
0141875760999992019011021004-34810-058530FM-12+002099999V0202001N0041101500199010000199+02001+01441101641ADDAZ101031AZ201031GA1021+009001061GA2081+015001051GE19AGL   +99999+99999GF108991021999009001999999MA1999999101401MD1310081+9999REMSYN004BUFR
0179875760999992019011021004-34822-058536FM-15+002099999V0202101V004110152419N009999199+02001+01501999999ADDGA1021+009141999GA2081+015241999GE19AGL   +99999+99999GF199999021999009141999999MA1101601999999REMMET072METAR SAEZ 102100Z 21008KT 150V240 9999 FEW030 OVC050 20/15 Q1016 NOSIG=
0179875760999992019011022004-34822-058536FM-15+002099999V0202001V004110121919N009999199+01901+01401999999ADDGA1021+008531999GA2081+012191999GE19AGL   +99999+99999GF199999021999008531999999MA1101701999999REMMET072METAR SAEZ 102200Z 20008KT 160V220 9999 FEW028 OVC040 19/14 Q1017 NOSIG=
0179875760999992019011023004-34822-058536FM-15+002099999V0201901V003610152419N009999199+01901+01301999999ADDGA1041+012191999GA2071+015241999GE19AGL   +99999+99999GF199999041999012191999999MA1101701999999REMMET072METAR SAEZ 102300Z 19007KT 170V250 9999 SCT040 BKN050 19/13 Q1017 NOSIG=
0162875760999992019011100004-34810-058530FM-12+002099999V0201601N0046122000199010000199+01771+01241101791ADDAA101999999AZ101061AZ201061GA1021+008701061GE19AGL   +99999+99999GF102991021999008701999999KA1120M+02211KA2120N+01761MA1999999101561MD1210161+9999REMSYN004BUFR
0148875760999992019011100004-34822-058536FM-15+002099999V0201501N004119999999N009999199+01701+01301999999ADDGA1021+008841999GE19AGL   +99999+99999GF199999021999008841999999MA1101801999999REMMET057METAR SAEZ 110000Z 15008KT 9999 FEW029 17/13 Q1018 NOSIG=
0078875760999992019011101004-34822-058536FM-15+002099999V0201501N003119999999Y009900199+01601+01201999999ADDMA1101901999999REMMET051METAR SAEZ 110100Z 15006KT CAVOK 16/12 Q1019 NOSIG=
0078875760999992019011102004-34822-058536FM-15+002099999V0201501N002619999999Y009900199+01501+01201999999ADDMA1101901999999REMMET051METAR SAEZ 110200Z 15005KT CAVOK 15/12 Q1019 NOSIG=
0087875760999992019011103004-34810-058530FM-12+002099999V0201401N0021122000199010000199+01421+01161102031ADDAZ101031AZ201031GF100991999999999999999999MA1999999101801MD1210241+9999REMSYN004BUFR
0078875760999992019011103004-34822-058536FM-15+002099999V0201501N002119999999Y009900199+01401+01201999999ADDMA1102001999999REMMET051METAR SAEZ 110300Z 15004KT CAVOK 14/12 Q1020 NOSIG=
0078875760999992019011104004-34822-058536FM-15+002099999V0201901N001519999999Y009900199+01301+01201999999ADDMA1102001999999REMMET051METAR SAEZ 110400Z 19003KT CAVOK 13/12 Q1020 NOSIG=
0078875760999992019011105004-34822-058536FM-15+002099999V0201801N001519999999Y009900199+01201+01101999999ADDMA1102001999999REMMET051METAR SAEZ 110500Z 18003KT CAVOK 12/11 Q1020 NOSIG=
0098875760999992019011106004-34810-058530FM-12+002099999V0202001N0010122000199010000199+01151+01071102021ADDAA101999999AZ101061AZ201061GF100991999999999999999999MA1999999101781MD1510011+9999REMSYN004BUFR
0078875760999992019011106004-34822-058536FM-15+002099999V0202101N001019999999Y009900199+01001+01001999999ADDMA1102001999999REMMET051METAR SAEZ 110600Z 21002KT CAVOK 10/10 Q1020 NOSIG=
0078875760999992019011107004-34822-058536FM-15+002099999V0203001N000519999999Y009900199+01001+01001999999ADDMA1102001999999REMMET051METAR SAEZ 110700Z 30001KT CAVOK 10/10 Q1020 NOSIG=
0115875760999992019011108004-34822-058536FM-15+002099999V0202101N001012200019N009000199+00901+00901999999ADDGF100991999999999999999999MA1102001999999REMMET062METAR SAEZ 110800Z 21002KT 9000 NSC 09/09 Q1020 BECMG 5000 BR=
0138875760999992019011108124-34822-058536FM-15+002099999V0202101N000512200019N006000199+00901+00901999999ADDED111U99999GF100991999999999999999999MA1102001999999MW1121REMMET068METAR SAEZ 110812Z 21001KT 6000 R11/0275 MIFG NSC 09/09 Q1020 NOSIG=
0131875760999992019011109004-34810-058530FM-12+002099999V0202301N0015122000199006000199+00971+00921102071ADDAY141031AY201031GA1021+060001021GE19AGL   +99999+99999GF102991021999060001999999MA1999999101841MD1310051+9999MW1111REMSYN004BUFR
0118875760999992019011109004-34822-058536FM-15+002099999V0202301N001512200019N007000199+00901+00901999999ADDGF100991999999999999999999MA1102001999999MW1121REMMET059METAR SAEZ 110900Z 23003KT 7000 MIFG NSC 09/09 Q1020 NOSIG=
0078875760999992019011110004-34822-058536FM-15+002099999V0202001N001019999999Y009900199+01101+01101999999ADDMA1102101999999REMMET051METAR SAEZ 111000Z 20002KT CAVOK 11/11 Q1021 NOSIG=
0078875760999992019011111004-34822-058536FM-15+002099999V0201401N001019999999Y009900199+01401+01201999999ADDMA1102101999999REMMET051METAR SAEZ 111100Z 14002KT CAVOK 14/12 Q1021 NOSIG=
0168875760999992019011112004-34810-058530FM-12+002099999V0201401N0010122000199010000199+01751+01101102131ADDAA124000331AY141061AY201061GA1011+060001021GE19AGL   +99999+99999GF101991011999060001999999KA1120M+01761KA2120N+00901MA1999999101891MD1210051+9999MW1021REMSYN004BUFR
0078875760999992019011112004-34822-058536FM-15+002099999V0201201N001019999999Y009900199+01801+01101999999ADDMA1102101999999REMMET051METAR SAEZ 111200Z 12002KT CAVOK 18/11 Q1021 NOSIG=
0086875760999992019011113004-34822-058536FM-15+002099999V0201301V002119999999Y009900199+02001+01001999999ADDMA1102101999999REMMET059METAR SAEZ 111300Z 13004KT 080V180 CAVOK 20/10 Q1021 NOSIG=
0086875760999992019011114004-34822-058536FM-15+002099999V0201201V003619999999Y009900199+02101+00801999999ADDMA1102101999999REMMET059METAR SAEZ 111400Z 12007KT 100V170 CAVOK 21/08 Q1021 NOSIG=
0087875760999992019011115004-34810-058530FM-12+002099999V0201101N0031122000199010000199+02251+00591102071ADDAZ101031AZ201031GF100991999999999999999999MA1999999101841MD1810051+9999REMSYN004BUFR
0078875760999992019011115004-34822-058536FM-15+002099999V0201101N003119999999Y009900199+02201+00701999999ADDMA1102001999999REMMET051METAR SAEZ 111500Z 11006KT CAVOK 22/07 Q1020 NOSIG=
0078875760999992019011116004-34822-058536FM-15+002099999V0201001N004619999999Y009900199+02301+00701999999ADDMA1102001999999REMMET051METAR SAEZ 111600Z 10009KT CAVOK 23/07 Q1020 NOSIG=
0078875760999992019011117004-34822-058536FM-15+002099999V0200901N004119999999Y009900199+02501+00801999999ADDMA1101901999999REMMET051METAR SAEZ 111700Z 09008KT CAVOK 25/08 Q1019 NOSIG=
0098875760999992019011118004-34810-058530FM-12+002099999V0201401N0031122000199010000199+02521+00651101881ADDAA101999999AZ101061AZ201061GF100991999999999999999999MA1999999101641MD1710201+9999REMSYN004BUFR
0078875760999992019011118004-34822-058536FM-15+002099999V0201301N003119999999Y009900199+02501+00601999999ADDMA1101801999999REMMET051METAR SAEZ 111800Z 13006KT CAVOK 25/06 Q1018 NOSIG=
0078875760999992019011119004-34822-058536FM-15+002099999V0200401N005119999999Y009900199+02501+00701999999ADDMA1101801999999REMMET051METAR SAEZ 111900Z 04010KT CAVOK 25/07 Q1018 NOSIG=
0078875760999992019011120004-34822-058536FM-15+002099999V0200401N005719999999Y009900199+02401+00901999999ADDMA1101701999999REMMET051METAR SAEZ 112000Z 04011KT CAVOK 24/09 Q1017 NOSIG=
0087875760999992019011121004-34810-058530FM-12+002099999V0200701N0051122000199010000199+02401+00781101761ADDAZ101031AZ201031GF100991999999999999999999MA1999999101521MD1710121+9999REMSYN004BUFR
0078875760999992019011121004-34822-058536FM-15+002099999V0200701N005119999999Y009900199+02401+00901999999ADDMA1101701999999REMMET051METAR SAEZ 112100Z 07010KT CAVOK 24/09 Q1017 NOSIG=
0078875760999992019011122004-34822-058536FM-15+002099999V0200701N004119999999Y009900199+02301+00901999999ADDMA1101701999999REMMET051METAR SAEZ 112200Z 07008KT CAVOK 23/09 Q1017 NOSIG=
0078875760999992019011123004-34822-058536FM-15+002099999V0200801N003619999999Y009900199+02101+00801999999ADDMA1101701999999REMMET051METAR SAEZ 112300Z 08007KT CAVOK 21/08 Q1017 NOSIG=
0124875760999992019011200004-34810-058530FM-12+002099999V0200901N0026122000199010000199+01971+00891101751ADDAA101999999AZ101061AZ201061GF100991999999999999999999KA1120M+02661KA2120N+01711MA1999999101521MD1410001+9999REMSYN004BUFR
0078875760999992019011201004-34822-058536FM-15+002099999V0201401N002119999999Y009900199+01701+01101999999ADDMA1101801999999REMMET051METAR SAEZ 120100Z 14004KT CAVOK 17/11 Q1018 NOSIG=
0078875760999992019011202004-34822-058536FM-15+002099999V0201001N002119999999Y009900199+01601+01101999999ADDMA1101701999999REMMET051METAR SAEZ 120200Z 10004KT CAVOK 16/11 Q1017 NOSIG=
0125875760999992019011203004-34810-058530FM-12+002099999V0201101N0021122000199010000199+01721+01181101761ADDAZ101031AZ201031GA1021+060001001GE19AGL   +99999+99999GF102991021999060001999999MA1999999101521MD1410001+9999REMSYN004BUFR
0078875760999992019011203004-34822-058536FM-15+002099999V0201001N002119999999Y009900199+01601+01101999999ADDMA1101701999999REMMET051METAR SAEZ 120300Z 10004KT CAVOK 16/11 Q1017 NOSIG=
0078875760999992019011204004-34822-058536FM-15+002099999V0209999V001519999999Y009900199+01601+01101999999ADDMA1101701999999REMMET051METAR SAEZ 120400Z VRB03KT CAVOK 16/11 Q1017 NOSIG=
0078875760999992019011205004-34822-058536FM-15+002099999V0201101N002619999999Y009900199+01601+01201999999ADDMA1101601999999REMMET051METAR SAEZ 120500Z 11005KT CAVOK 16/12 Q1016 NOSIG=
0136875760999992019011206004-34810-058530FM-12+002099999V0200701N0026122000199010000199+01621+01291101621ADDAA101999999AZ101061AZ201061GA1031+060001001GE19AGL   +99999+99999GF103991031999060001999999MA1999999101381MD1710131+9999REMSYN004BUFR
0078875760999992019011206004-34822-058536FM-15+002099999V0200701N002619999999Y009900199+01601+01301999999ADDMA1101601999999REMMET051METAR SAEZ 120600Z 07005KT CAVOK 16/13 Q1016 NOSIG=
0078875760999992019011207004-34822-058536FM-15+002099999V0200401N002119999999Y009900199+01901+01501999999ADDMA1101601999999REMMET051METAR SAEZ 120700Z 04004KT CAVOK 19/15 Q1016 NOSIG=
0078875760999992019011208004-34822-058536FM-15+002099999V0200501N003619999999Y009900199+02001+01601999999ADDMA1101601999999REMMET051METAR SAEZ 120800Z 05007KT CAVOK 20/16 Q1016 NOSIG=
0125875760999992019011209004-34810-058530FM-12+002099999V0200201N00261030001C9010000199+02011+01581101641ADDAZ101031AZ201031GA1061+030001031GE19AGL   +99999+99999GF106991061999030001999999MA1999999101411MD1310031+9999REMSYN004BUFR
0078875760999992019011209004-34822-058536FM-15+002099999V0200201N002619999999Y009900199+02001+01601999999ADDMA1101601999999REMMET051METAR SAEZ 120900Z 02005KT CAVOK 20/16 Q1016 NOSIG=
0078875760999992019011210004-34822-058536FM-15+002099999V0200201N003119999999Y009900199+02101+01701999999ADDMA1101601999999REMMET051METAR SAEZ 121000Z 02006KT CAVOK 21/17 Q1016 NOSIG=
0078875760999992019011211004-34822-058536FM-15+002099999V0200401N002619999999Y009900199+02201+01801999999ADDMA1101601999999REMMET051METAR SAEZ 121100Z 04005KT CAVOK 22/18 Q1016 NOSIG=
0162875760999992019011212004-34810-058530FM-12+002099999V0200201N0026122000199010000199+02321+01711101671ADDAA101999999AZ101061AZ201061GA1031+030001031GE19AGL   +99999+99999GF103991031999030001999999KA1120M+02321KA2120N+01611MA1999999101441MD1310031+9999REMSYN004BUFR
0078875760999992019011212004-34822-058536FM-15+002099999V0200301N003119999999Y009900199+02401+01801999999ADDMA1101601999999REMMET051METAR SAEZ 121200Z 03006KT CAVOK 24/18 Q1016 NOSIG=
0148875760999992019011213004-34822-058536FM-15+002099999V0200301N003119999999N009999199+02501+01801999999ADDGA1041+007621999GE19AGL   +99999+99999GF199999041999007621999999MA1101601999999REMMET057METAR SAEZ 121300Z 03006KT 9999 SCT025 25/18 Q1016 NOSIG=
0148875760999992019011214004-34822-058536FM-15+002099999V0200301N00411009141CN009999199+02501+01801999999ADDGA1071+009141999GE19AGL   +99999+99999GF199999071999009141999999MA1101601999999REMMET057METAR SAEZ 121400Z 03008KT 9999 BKN030 25/18 Q1016 NOSIG=
0125875760999992019011215004-34810-058530FM-12+002099999V0200501N00361010801C9010000199+02611+01671101591ADDAZ101031AZ201031GA1051+010801081GE19AGL   +99999+99999GF105991051999010801999999MA1999999101361MD1710081+9999REMSYN004BUFR
0148875760999992019011215004-34822-058536FM-15+002099999V0200401N00361010971CN009999199+02701+01801999999ADDGA1071+010971999GE19AGL   +99999+99999GF199999071999010971999999MA1101601999999REMMET057METAR SAEZ 121500Z 04007KT 9999 BKN036 27/18 Q1016 NOSIG=
0148875760999992019011216004-34822-058536FM-15+002099999V0200401N004119999999N009999199+02701+01601999999ADDGA1041+012191999GE19AGL   +99999+99999GF199999041999012191999999MA1101501999999REMMET057METAR SAEZ 121600Z 04008KT 9999 SCT040 27/16 Q1015 NOSIG=
0078875760999992019011217004-34822-058536FM-15+002099999V0200301N004119999999Y009900199+02701+01701999999ADDMA1101401999999REMMET051METAR SAEZ 121700Z 03008KT CAVOK 27/17 Q1014 NOSIG=
0136875760999992019011218004-34810-058530FM-12+002099999V0200501N0046122000199010000199+02811+01371101411ADDAA101999999AZ101061AZ201061GA1011+015001081GE19AGL   +99999+99999GF101991011999015001999999MA1999999101181MD1710171+9999REMSYN004BUFR
0078875760999992019011218004-34822-058536FM-15+002099999V0200401N004619999999Y009900199+02801+01201999999ADDMA1101401999999REMMET051METAR SAEZ 121800Z 04009KT CAVOK 28/12 Q1014 NOSIG=
0078875760999992019011219004-34822-058536FM-15+002099999V0200301N004619999999Y009900199+02801+01301999999ADDMA1101301999999REMMET051METAR SAEZ 121900Z 03009KT CAVOK 28/13 Q1013 NOSIG=
0078875760999992019011220004-34822-058536FM-15+002099999V0200701N004619999999Y009900199+02801+01701999999ADDMA1101301999999REMMET051METAR SAEZ 122000Z 07009KT CAVOK 28/17 Q1013 NOSIG=
0125875760999992019011221004-34810-058530FM-12+002099999V0200501N0046122000199010000199+02851+01741101251ADDAZ101031AZ201031GA1021+030001031GE19AGL   +99999+99999GF102991021999030001999999MA1999999101021MD1610161+9999REMSYN004BUFR
0078875760999992019011221004-34822-058536FM-15+002099999V0200501N004619999999Y009900199+02801+01701999999ADDMA1101201999999REMMET051METAR SAEZ 122100Z 05009KT CAVOK 28/17 Q1012 NOSIG=
0078875760999992019011222004-34822-058536FM-15+002099999V0200801N004619999999Y009900199+02701+01601999999ADDMA1101201999999REMMET051METAR SAEZ 122200Z 08009KT CAVOK 27/16 Q1012 NOSIG=
0078875760999992019011223004-34822-058536FM-15+002099999V0200801N004119999999Y009900199+02601+01601999999ADDMA1101201999999REMMET051METAR SAEZ 122300Z 08008KT CAVOK 26/16 Q1012 NOSIG=
0162875760999992019011300004-34810-058530FM-12+002099999V0200901N0036122000199010000199+02421+01611101271ADDAA101999999AZ101061AZ201061GA1011+030001031GE19AGL   +99999+99999GF101991011999030001999999KA1120M+02901KA2120N+02301MA1999999101041MD1010011+9999REMSYN004BUFR
0078875760999992019011300004-34822-058536FM-15+002099999V0200801N003619999999Y009900199+02401+01601999999ADDMA1101201999999REMMET051METAR SAEZ 130000Z 08007KT CAVOK 24/16 Q1012 NOSIG=
0078875760999992019011301004-34822-058536FM-15+002099999V0200901N005119999999Y009900199+02301+01601999999ADDMA1101301999999REMMET051METAR SAEZ 130100Z 09010KT CAVOK 23/16 Q1013 NOSIG=
0078875760999992019011302004-34822-058536FM-15+002099999V0200901N004119999999Y009900199+02301+01701999999ADDMA1101301999999REMMET051METAR SAEZ 130200Z 09008KT CAVOK 23/17 Q1013 NOSIG=
0125875760999992019011303004-34810-058530FM-12+002099999V0200901N0021122000199010000199+02251+01841101381ADDAZ101031AZ201031GA1011+030001031GE19AGL   +99999+99999GF101991011999030001999999MA1999999101141MD1210111+9999REMSYN004BUFR
0078875760999992019011303004-34822-058536FM-15+002099999V0201001N002119999999Y009900199+02201+01801999999ADDMA1101401999999REMMET051METAR SAEZ 130300Z 10004KT CAVOK 22/18 Q1014 NOSIG=
0078875760999992019011304004-34822-058536FM-15+002099999V0201101N002619999999Y009900199+02101+01901999999ADDMA1101301999999REMMET051METAR SAEZ 130400Z 11005KT CAVOK 21/19 Q1013 NOSIG=
0078875760999992019011305004-34822-058536FM-15+002099999V0201101N002619999999Y009900199+02101+02001999999ADDMA1101201999999REMMET051METAR SAEZ 130500Z 11005KT CAVOK 21/20 Q1012 NOSIG=
0136875760999992019011306004-34810-058530FM-12+002099999V0200901N0021122000199010000199+02251+02051101241ADDAA101999999AZ101061AZ201061GA1041+012301061GE19AGL   +99999+99999GF104991041999012301999999MA1999999101011MD1710131+9999REMSYN004BUFR
0148875760999992019011306004-34822-058536FM-15+002099999V0200901N002119999999N009999199+02201+02101999999ADDGA1041+012501999GE19AGL   +99999+99999GF199999041999012501999999MA1101201999999REMMET057METAR SAEZ 130600Z 09004KT 9999 SCT041 22/21 Q1012 NOSIG=
0148875760999992019011307004-34822-058536FM-15+002099999V0200301N003119999999N009999199+02301+02101999999ADDGA1021+006101999GE19AGL   +99999+99999GF199999021999006101999999MA1101201999999REMMET057METAR SAEZ 130700Z 03006KT 9999 FEW020 23/21 Q1012 NOSIG=
0171875760999992019011308004-34822-058536FM-15+002099999V0200201N00311060961CN009999199+02301+02101999999ADDGA1021+006101999GA2041+060961999GE19AGL   +99999+99999GF199999021999006101999999MA1101201999999REMMET064METAR SAEZ 130800Z 02006KT 9999 FEW020 SCT200 23/21 Q1012 NOSIG=
0141875760999992019011309004-34810-058530FM-12+002099999V0200201N00361030001C9010000199+02351+02011101251ADDAZ101031AZ201031GA1031+006301061GA2051+030001031GE19AGL   +99999+99999GF107991031999006301999999MA1999999101021MD1310011+9999REMSYN004BUFR
0171875760999992019011309004-34822-058536FM-15+002099999V0200201N003110304819N009999199+02301+02101999999ADDGA1041+006401999GA2071+030481999GE19AGL   +99999+99999GF199999041999006401999999MA1101201999999REMMET064METAR SAEZ 130900Z 02006KT 9999 SCT021 BKN100 23/21 Q1012 NOSIG=
0190875760999992019011310004-34822-058536FM-15+002099999V0200401N002610304819N009999199+02301+02101999999ADDGA1041+005491999GA2071+030481999GE19AGL   +99999+99999GF199999041999005491999999MA1101301999999REMMET083METAR SAEZ 131000Z 04005KT 9999 SCT018 BKN100 23/21 Q1013 BECMG 7000 TSRA FEW045CB=
0204875760999992019011310424-34822-058536FM-16+002099999V0202201N00261004571CN009000199+02201+02101999999ADDGA1071+004571999GA2041+006401999GA3071+030481999GE19AGL   +99999+99999GF199999071999004571999999MA1101501999999MW1611REMMET075SPECI SAEZ 131042Z 22005KT 9000 -RA BKN015 SCT021 BKN100 22/21 Q1015 NOSIG=
0249875760999992019011311004-34822-058536FM-15+002099999V0202001N001510094519N009000199+02201+02101999999ADDGA1021+004571999GA2071+009451999GA3021+013721081GA4071+030481999GE19AGL   +99999+99999GF199999021999004571999999MA1101501999999MW1611REMMET104METAR SAEZ 131100Z 20003KT 9000 -RA FEW015 BKN031 FEW045TCU BKN100 22/21 Q1015 BECMG 7000 TSRA FEW045CB=
0211875760999992019011312004-34810-058530FM-12+002099999V0202001N0010103000199009000199+02201+02111101511ADDAA106000231AA224000231AY161061AY221061GA1011+005401061GA2021+013501081GA3081+030001031GE19AGL   +99999+99999GF108991011999005401999999KA1120M+02461KA2120N+02121MA1999999101281MD1210251+9999MW1611REMSYN004BUFR
0181875760999992019011312004-34822-058536FM-15+002099999V0202001N001510304819N009000199+02201+02201999999ADDGA1021+005491999GA2081+030481999GE19AGL   +99999+99999GF199999021999005491999999MA1101501999999MW1611REMMET068METAR SAEZ 131200Z 20003KT 9000 -RA FEW018 OVC100 22/22 Q1015 NOSIG=
0190875760999992019011312084-34822-058536FM-16+002099999V0202001N001010274319N005000199+02201+02201999999ADDGA1021+005491999GA2081+027431999GE19AGL   +99999+99999GF199999021999005491999999MA1101501999999MW1101MW2611REMMET071SPECI SAEZ 131208Z 20002KT 5000 -RA BR FEW018 OVC090 22/22 Q1015 NOSIG=
0190875760999992019011312164-34822-058536FM-16+002099999V0201801N001510149419N003000199+02201+02201999999ADDGA1041+005181999GA2081+014941999GE19AGL   +99999+99999GF199999041999005181999999MA1101501999999MW1101MW2611REMMET071SPECI SAEZ 131216Z 18003KT 3000 -RA BR SCT017 OVC049 22/22 Q1015 NOSIG=
0213875760999992019011313004-34822-058536FM-15+002099999V0201201N00261010971CN003000199+02201+02201999999ADDGA1021+001221999GA2041+010971999GA3081+015241999GE19AGL   +99999+99999GF199999021999001221999999MA1101401999999MW1101MW2611REMMET078METAR SAEZ 131300Z 12005KT 3000 -RA BR FEW004 SCT036 OVC050 22/22 Q1014 NOSIG=
0190875760999992019011314004-34822-058536FM-15+002099999V0200801N00621002131CN007000199+02301+02201999999ADDGA1071+002131999GA2081+015241999GE19AGL   +99999+99999GF199999071999002131999999MA1101201999999MW1531MW2611REMMET071METAR SAEZ 131400Z 08012KT 7000 -RA DZ BKN007 OVC050 23/22 Q1012 NOSIG=
0189875760999992019011314114-34822-058536FM-16+002099999V0200701N006710121919N004000199+02301+02201999999ADDGA1041+002131999GA2081+012191999GE19AGL   +99999+99999GF199999041999002131999999MA1101201999999MW1531MW2631REMMET070SPECI SAEZ 131411Z 07013KT 4000 RA DZ SCT007 OVC040 23/22 Q1012 NOSIG=
0147875760999992019011315004-34810-058530FM-12+002099999V0203601N0015100420199008000199+02311+02151101231ADDAY161031AY251031GA1031+002401071GA2071+004201071GE19AGL   +99999+99999GF108991031999002401999999MA1999999101001MD1710281+9999MW1511REMSYN004BUFR
0181875760999992019011315004-34822-058536FM-15+002099999V0202101N003110042719N008000199+02301+02201999999ADDGA1041+002441999GA2071+004271999GE19AGL   +99999+99999GF199999041999002441999999MA1101301999999MW1511REMMET068METAR SAEZ 131500Z 21006KT 8000 -DZ SCT008 BKN014 23/22 Q1013 NOSIG=
0174875760999992019011316004-34822-058536FM-15+002099999V0200901N002619999999N009999199+02401+02201999999ADDGA1041+003961999GA2021+015241081GE19AGL   +99999+99999GF199999041999003961999999MA1101301999999REMMET067METAR SAEZ 131600Z 09005KT 9999 SCT013 FEW050TCU 24/22 Q1013 NOSIG=
0174875760999992019011317004-34822-058536FM-15+002099999V0200801N00361015241CN009999199+02401+02201999999ADDGA1041+004571999GA2041+015241081GE19AGL   +99999+99999GF199999041999004571999999MA1101301999999REMMET067METAR SAEZ 131700Z 08007KT 9999 SCT015 SCT050TCU 24/22 Q1013 NOSIG=
0158875760999992019011318004-34810-058530FM-12+002099999V0200901N0046103000199010000199+02471+02011101221ADDAA106001031AY161061AY251061GA1021+005101061GA2081+030001041GE19AGL   +99999+99999GF108991021999005101999999MA1999999100981MD1710011+9999MW1021REMSYN004BUFR
0171875760999992019011318004-34822-058536FM-15+002099999V0200701N004610304819N009999199+02401+02101999999ADDGA1021+005181999GA2081+030481999GE19AGL   +99999+99999GF199999021999005181999999MA1101201999999REMMET064METAR SAEZ 131800Z 07009KT 9999 FEW017 OVC100 24/21 Q1012 NOSIG=
